{
  "_format": "hh-sol-artifact-1",
  "contractName": "CCIPBridge",
  "sourceName": "contracts/CCIPBridge.sol",
  "abi": [
    {
      "inputs": [
        {
          "internalType": "address",
          "name": "_ccipRouter",
          "type": "address"
        },
        {
          "internalType": "address",
          "name": "_realEstateToken",
          "type": "address"
        }
      ],
      "stateMutability": "nonpayable",
      "type": "constructor"
    },
    {
      "inputs": [
        {
          "internalType": "address",
          "name": "owner",
          "type": "address"
        }
      ],
      "name": "OwnableInvalidOwner",
      "type": "error"
    },
    {
      "inputs": [
        {
          "internalType": "address",
          "name": "account",
          "type": "address"
        }
      ],
      "name": "OwnableUnauthorizedAccount",
      "type": "error"
    },
    {
      "anonymous": false,
      "inputs": [
        {
          "indexed": true,
          "internalType": "address",
          "name": "previousOwner",
          "type": "address"
        },
        {
          "indexed": true,
          "internalType": "address",
          "name": "newOwner",
          "type": "address"
        }
      ],
      "name": "OwnershipTransferred",
      "type": "event"
    },
    {
      "anonymous": false,
      "inputs": [
        {
          "indexed": true,
          "internalType": "address",
          "name": "sender",
          "type": "address"
        },
        {
          "indexed": true,
          "internalType": "uint256",
          "name": "propertyId",
          "type": "uint256"
        },
        {
          "indexed": false,
          "internalType": "uint256",
          "name": "amount",
          "type": "uint256"
        },
        {
          "indexed": false,
          "internalType": "string",
          "name": "destinationChain",
          "type": "string"
        }
      ],
      "name": "TokensLocked",
      "type": "event"
    },
    {
      "anonymous": false,
      "inputs": [
        {
          "indexed": true,
          "internalType": "address",
          "name": "receiver",
          "type": "address"
        },
        {
          "indexed": true,
          "internalType": "uint256",
          "name": "propertyId",
          "type": "uint256"
        },
        {
          "indexed": false,
          "internalType": "uint256",
          "name": "amount",
          "type": "uint256"
        },
        {
          "indexed": false,
          "internalType": "string",
          "name": "sourceChain",
          "type": "string"
        }
      ],
      "name": "TokensMinted",
      "type": "event"
    },
    {
      "inputs": [
        {
          "components": [
            {
              "internalType": "bytes32",
              "name": "messageId",
              "type": "bytes32"
            },
            {
              "internalType": "uint64",
              "name": "sourceChainSelector",
              "type": "uint64"
            },
            {
              "internalType": "bytes",
              "name": "sender",
              "type": "bytes"
            },
            {
              "internalType": "bytes",
              "name": "data",
              "type": "bytes"
            },
            {
              "components": [
                {
                  "internalType": "address",
                  "name": "token",
                  "type": "address"
                },
                {
                  "internalType": "uint256",
                  "name": "amount",
                  "type": "uint256"
                }
              ],
              "internalType": "struct Client.EVMTokenAmount[]",
              "name": "destTokenAmounts",
              "type": "tuple[]"
            }
          ],
          "internalType": "struct Client.Any2EVMMessage",
          "name": "message",
          "type": "tuple"
        }
      ],
      "name": "ccipReceive",
      "outputs": [],
      "stateMutability": "nonpayable",
      "type": "function"
    },
    {
      "inputs": [],
      "name": "ccipRouter",
      "outputs": [
        {
          "internalType": "contract IRouterClient",
          "name": "",
          "type": "address"
        }
      ],
      "stateMutability": "view",
      "type": "function"
    },
    {
      "inputs": [
        {
          "internalType": "string",
          "name": "",
          "type": "string"
        }
      ],
      "name": "chainSelectors",
      "outputs": [
        {
          "internalType": "uint64",
          "name": "",
          "type": "uint64"
        }
      ],
      "stateMutability": "view",
      "type": "function"
    },
    {
      "inputs": [
        {
          "internalType": "string",
          "name": "",
          "type": "string"
        }
      ],
      "name": "destinationBridges",
      "outputs": [
        {
          "internalType": "address",
          "name": "",
          "type": "address"
        }
      ],
      "stateMutability": "view",
      "type": "function"
    },
    {
      "inputs": [
        {
          "internalType": "address",
          "name": "_to",
          "type": "address"
        },
        {
          "internalType": "uint256",
          "name": "_propertyId",
          "type": "uint256"
        },
        {
          "internalType": "uint256",
          "name": "_amount",
          "type": "uint256"
        },
        {
          "internalType": "string",
          "name": "_destinationChain",
          "type": "string"
        }
      ],
      "name": "lockAndSend",
      "outputs": [],
      "stateMutability": "nonpayable",
      "type": "function"
    },
    {
      "inputs": [
        {
          "internalType": "address",
          "name": "",
          "type": "address"
        },
        {
          "internalType": "address",
          "name": "",
          "type": "address"
        },
        {
          "internalType": "uint256",
          "name": "",
          "type": "uint256"
        },
        {
          "internalType": "uint256",
          "name": "",
          "type": "uint256"
        },
        {
          "internalType": "bytes",
          "name": "",
          "type": "bytes"
        }
      ],
      "name": "onERC1155Received",
      "outputs": [
        {
          "internalType": "bytes4",
          "name": "",
          "type": "bytes4"
        }
      ],
      "stateMutability": "pure",
      "type": "function"
    },
    {
      "inputs": [],
      "name": "owner",
      "outputs": [
        {
          "internalType": "address",
          "name": "",
          "type": "address"
        }
      ],
      "stateMutability": "view",
      "type": "function"
    },
    {
      "inputs": [],
      "name": "realEstateToken",
      "outputs": [
        {
          "internalType": "contract IRealEstateToken",
          "name": "",
          "type": "address"
        }
      ],
      "stateMutability": "view",
      "type": "function"
    },
    {
      "inputs": [],
      "name": "renounceOwnership",
      "outputs": [],
      "stateMutability": "nonpayable",
      "type": "function"
    },
    {
      "inputs": [
        {
          "internalType": "string",
          "name": "_chainName",
          "type": "string"
        },
        {
          "internalType": "uint64",
          "name": "_chainSelector",
          "type": "uint64"
        },
        {
          "internalType": "address",
          "name": "_bridgeAddress",
          "type": "address"
        }
      ],
      "name": "setDestinationChain",
      "outputs": [],
      "stateMutability": "nonpayable",
      "type": "function"
    },
    {
      "inputs": [
        {
          "internalType": "address",
          "name": "newOwner",
          "type": "address"
        }
      ],
      "name": "transferOwnership",
      "outputs": [],
      "stateMutability": "nonpayable",
      "type": "function"
    }
  ],
  "bytecode": "0x60806040523480156200001157600080fd5b5060405162001f6f38038062001f6f833981810160405281019062000037919062000277565b33600073ffffffffffffffffffffffffffffffffffffffff168173ffffffffffffffffffffffffffffffffffffffff1603620000ad5760006040517f1e4fbdf7000000000000000000000000000000000000000000000000000000008152600401620000a49190620002cf565b60405180910390fd5b620000be816200014960201b60201c565b5081600160006101000a81548173ffffffffffffffffffffffffffffffffffffffff021916908373ffffffffffffffffffffffffffffffffffffffff16021790555080600260006101000a81548173ffffffffffffffffffffffffffffffffffffffff021916908373ffffffffffffffffffffffffffffffffffffffff1602179055505050620002ec565b60008060009054906101000a900473ffffffffffffffffffffffffffffffffffffffff169050816000806101000a81548173ffffffffffffffffffffffffffffffffffffffff021916908373ffffffffffffffffffffffffffffffffffffffff1602179055508173ffffffffffffffffffffffffffffffffffffffff168173ffffffffffffffffffffffffffffffffffffffff167f8be0079c531659141344cd1fd0a4f28419497f9722a3daafe3b4186f6b6457e060405160405180910390a35050565b600080fd5b600073ffffffffffffffffffffffffffffffffffffffff82169050919050565b60006200023f8262000212565b9050919050565b620002518162000232565b81146200025d57600080fd5b50565b600081519050620002718162000246565b92915050565b600080604083850312156200029157620002906200020d565b5b6000620002a18582860162000260565b9250506020620002b48582860162000260565b9150509250929050565b620002c98162000232565b82525050565b6000602082019050620002e66000830184620002be565b92915050565b611c7380620002fc6000396000f3fe608060405234801561001057600080fd5b50600436106100a95760003560e01c8063715018a611610071578063715018a61461016457806385572ffb1461016e5780638da5cb5b1461018a578063d4e9f951146101a8578063f23a6e61146101c6578063f2fde38b146101f6576100a9565b80630ab89a97146100ae5780630de22984146100ca57806338f232ae146100e8578063458098fc146101045780636a323dfd14610134575b600080fd5b6100c860048036038101906100c39190610e50565b610212565b005b6100d261066e565b6040516100df9190610f32565b60405180910390f35b61010260048036038101906100fd9190610f8d565b610694565b005b61011e60048036038101906101199190610ffc565b610743565b60405161012b9190611054565b60405180910390f35b61014e60048036038101906101499190610ffc565b610780565b60405161015b919061107e565b60405180910390f35b61016c6107c9565b005b61018860048036038101906101839190611372565b6107dd565b005b610192610976565b60405161019f919061107e565b60405180910390f35b6101b061099f565b6040516101bd91906113dc565b60405180910390f35b6101e060048036038101906101db91906113f7565b6109c5565b6040516101ed91906114c9565b60405180910390f35b610210600480360381019061020b91906114e4565b6109da565b005b60008211610255576040517f08c379a000000000000000000000000000000000000000000000000000000000815260040161024c9061156e565b60405180910390fd5b600060038260405161026791906115ff565b908152602001604051809103902060009054906101000a900467ffffffffffffffff1667ffffffffffffffff16036102d4576040517f08c379a00000000000000000000000000000000000000000000000000000000081526004016102cb90611662565b60405180910390fd5b600073ffffffffffffffffffffffffffffffffffffffff166004826040516102fc91906115ff565b908152602001604051809103902060009054906101000a900473ffffffffffffffffffffffffffffffffffffffff1673ffffffffffffffffffffffffffffffffffffffff1603610381576040517f08c379a0000000000000000000000000000000000000000000000000000000008152600401610378906116ce565b60405180910390fd5b600260009054906101000a900473ffffffffffffffffffffffffffffffffffffffff1673ffffffffffffffffffffffffffffffffffffffff1663f242432a333086866040518563ffffffff1660e01b81526004016103e29493929190611734565b600060405180830381600087803b1580156103fc57600080fd5b505af1158015610410573d6000803e3d6000fd5b5050505060006040518060a0016040528060048460405161043191906115ff565b908152602001604051809103902060009054906101000a900473ffffffffffffffffffffffffffffffffffffffff16604051602001610470919061107e565b60405160208183030381529060405281526020018686866040516020016104999392919061178c565b6040516020818303038152906040528152602001600067ffffffffffffffff8111156104c8576104c7610d25565b5b60405190808252806020026020018201604052801561050157816020015b6104ee610c32565b8152602001906001900390816104e65790505b508152602001600073ffffffffffffffffffffffffffffffffffffffff16815260200161053e604051806020016040528062030d40815250610a60565b8152509050600160009054906101000a900473ffffffffffffffffffffffffffffffffffffffff1673ffffffffffffffffffffffffffffffffffffffff166396f4e9f960038460405161059191906115ff565b908152602001604051809103902060009054906101000a900467ffffffffffffffff16836040518363ffffffff1660e01b81526004016105d292919061199f565b6020604051808303816000875af11580156105f1573d6000803e3d6000fd5b505050506040513d601f19601f8201168201806040525081019061061591906119e4565b50833373ffffffffffffffffffffffffffffffffffffffff167fb0733fef438eb2f8d800384da60993c08e969f4a8bf1580b0e19a701e8cc909c858560405161065f929190611a4a565b60405180910390a35050505050565b600160009054906101000a900473ffffffffffffffffffffffffffffffffffffffff1681565b61069c610adf565b816003846040516106ad91906115ff565b908152602001604051809103902060006101000a81548167ffffffffffffffff021916908367ffffffffffffffff160217905550806004846040516106f291906115ff565b908152602001604051809103902060006101000a81548173ffffffffffffffffffffffffffffffffffffffff021916908373ffffffffffffffffffffffffffffffffffffffff160217905550505050565b6003818051602081018201805184825260208301602085012081835280955050505050506000915054906101000a900467ffffffffffffffff1681565b6004818051602081018201805184825260208301602085012081835280955050505050506000915054906101000a900473ffffffffffffffffffffffffffffffffffffffff1681565b6107d1610adf565b6107db6000610b66565b565b600160009054906101000a900473ffffffffffffffffffffffffffffffffffffffff1673ffffffffffffffffffffffffffffffffffffffff163373ffffffffffffffffffffffffffffffffffffffff161461086d576040517f08c379a000000000000000000000000000000000000000000000000000000000815260040161086490611ac6565b60405180910390fd5b6000806000836060015180602001905181019061088a9190611b39565b925092509250600260009054906101000a900473ffffffffffffffffffffffffffffffffffffffff1673ffffffffffffffffffffffffffffffffffffffff1663156e29f68484846040518463ffffffff1660e01b81526004016108ef9392919061178c565b600060405180830381600087803b15801561090957600080fd5b505af115801561091d573d6000803e3d6000fd5b50505050818373ffffffffffffffffffffffffffffffffffffffff167fb38b9c49089380d9e8152113fdf53f5c4d7e74f14362d03c6624cef6aae0e3e3836040516109689190611bd8565b60405180910390a350505050565b60008060009054906101000a900473ffffffffffffffffffffffffffffffffffffffff16905090565b600260009054906101000a900473ffffffffffffffffffffffffffffffffffffffff1681565b600063f23a6e6160e01b905095945050505050565b6109e2610adf565b600073ffffffffffffffffffffffffffffffffffffffff168173ffffffffffffffffffffffffffffffffffffffff1603610a545760006040517f1e4fbdf7000000000000000000000000000000000000000000000000000000008152600401610a4b919061107e565b60405180910390fd5b610a5d81610b66565b50565b60606397a657c960e01b82604051602401610a7b9190611c22565b604051602081830303815290604052907bffffffffffffffffffffffffffffffffffffffffffffffffffffffff19166020820180517bffffffffffffffffffffffffffffffffffffffffffffffffffffffff83818316178352505050509050919050565b610ae7610c2a565b73ffffffffffffffffffffffffffffffffffffffff16610b05610976565b73ffffffffffffffffffffffffffffffffffffffff1614610b6457610b28610c2a565b6040517f118cdaa7000000000000000000000000000000000000000000000000000000008152600401610b5b919061107e565b60405180910390fd5b565b60008060009054906101000a900473ffffffffffffffffffffffffffffffffffffffff169050816000806101000a81548173ffffffffffffffffffffffffffffffffffffffff021916908373ffffffffffffffffffffffffffffffffffffffff1602179055508173ffffffffffffffffffffffffffffffffffffffff168173ffffffffffffffffffffffffffffffffffffffff167f8be0079c531659141344cd1fd0a4f28419497f9722a3daafe3b4186f6b6457e060405160405180910390a35050565b600033905090565b6040518060400160405280600073ffffffffffffffffffffffffffffffffffffffff168152602001600081525090565b6000604051905090565b600080fd5b600080fd5b600073ffffffffffffffffffffffffffffffffffffffff82169050919050565b6000610ca182610c76565b9050919050565b610cb181610c96565b8114610cbc57600080fd5b50565b600081359050610cce81610ca8565b92915050565b6000819050919050565b610ce781610cd4565b8114610cf257600080fd5b50565b600081359050610d0481610cde565b92915050565b600080fd5b600080fd5b6000601f19601f8301169050919050565b7f4e487b7100000000000000000000000000000000000000000000000000000000600052604160045260246000fd5b610d5d82610d14565b810181811067ffffffffffffffff82111715610d7c57610d7b610d25565b5b80604052505050565b6000610d8f610c62565b9050610d9b8282610d54565b919050565b600067ffffffffffffffff821115610dbb57610dba610d25565b5b610dc482610d14565b9050602081019050919050565b82818337600083830152505050565b6000610df3610dee84610da0565b610d85565b905082815260208101848484011115610e0f57610e0e610d0f565b5b610e1a848285610dd1565b509392505050565b600082601f830112610e3757610e36610d0a565b5b8135610e47848260208601610de0565b91505092915050565b60008060008060808587031215610e6a57610e69610c6c565b5b6000610e7887828801610cbf565b9450506020610e8987828801610cf5565b9350506040610e9a87828801610cf5565b925050606085013567ffffffffffffffff811115610ebb57610eba610c71565b5b610ec787828801610e22565b91505092959194509250565b6000819050919050565b6000610ef8610ef3610eee84610c76565b610ed3565b610c76565b9050919050565b6000610f0a82610edd565b9050919050565b6000610f1c82610eff565b9050919050565b610f2c81610f11565b82525050565b6000602082019050610f476000830184610f23565b92915050565b600067ffffffffffffffff82169050919050565b610f6a81610f4d565b8114610f7557600080fd5b50565b600081359050610f8781610f61565b92915050565b600080600060608486031215610fa657610fa5610c6c565b5b600084013567ffffffffffffffff811115610fc457610fc3610c71565b5b610fd086828701610e22565b9350506020610fe186828701610f78565b9250506040610ff286828701610cbf565b9150509250925092565b60006020828403121561101257611011610c6c565b5b600082013567ffffffffffffffff8111156110305761102f610c71565b5b61103c84828501610e22565b91505092915050565b61104e81610f4d565b82525050565b60006020820190506110696000830184611045565b92915050565b61107881610c96565b82525050565b6000602082019050611093600083018461106f565b92915050565b600080fd5b600080fd5b6000819050919050565b6110b6816110a3565b81146110c157600080fd5b50565b6000813590506110d3816110ad565b92915050565b600067ffffffffffffffff8211156110f4576110f3610d25565b5b6110fd82610d14565b9050602081019050919050565b600061111d611118846110d9565b610d85565b90508281526020810184848401111561113957611138610d0f565b5b611144848285610dd1565b509392505050565b600082601f83011261116157611160610d0a565b5b813561117184826020860161110a565b91505092915050565b600067ffffffffffffffff82111561119557611194610d25565b5b602082029050602081019050919050565b600080fd5b6000604082840312156111c1576111c0611099565b5b6111cb6040610d85565b905060006111db84828501610cbf565b60008301525060206111ef84828501610cf5565b60208301525092915050565b600061120e6112098461117a565b610d85565b90508083825260208201905060408402830185811115611231576112306111a6565b5b835b8181101561125a578061124688826111ab565b845260208401935050604081019050611233565b5050509392505050565b600082601f83011261127957611278610d0a565b5b81356112898482602086016111fb565b91505092915050565b600060a082840312156112a8576112a7611099565b5b6112b260a0610d85565b905060006112c2848285016110c4565b60008301525060206112d684828501610f78565b602083015250604082013567ffffffffffffffff8111156112fa576112f961109e565b5b6113068482850161114c565b604083015250606082013567ffffffffffffffff81111561132a5761132961109e565b5b6113368482850161114c565b606083015250608082013567ffffffffffffffff81111561135a5761135961109e565b5b61136684828501611264565b60808301525092915050565b60006020828403121561138857611387610c6c565b5b600082013567ffffffffffffffff8111156113a6576113a5610c71565b5b6113b284828501611292565b91505092915050565b60006113c682610eff565b9050919050565b6113d6816113bb565b82525050565b60006020820190506113f160008301846113cd565b92915050565b600080600080600060a0868803121561141357611412610c6c565b5b600061142188828901610cbf565b955050602061143288828901610cbf565b945050604061144388828901610cf5565b935050606061145488828901610cf5565b925050608086013567ffffffffffffffff81111561147557611474610c71565b5b6114818882890161114c565b9150509295509295909350565b60007fffffffff0000000000000000000000000000000000000000000000000000000082169050919050565b6114c38161148e565b82525050565b60006020820190506114de60008301846114ba565b92915050565b6000602082840312156114fa576114f9610c6c565b5b600061150884828501610cbf565b91505092915050565b600082825260208201905092915050565b7f416d6f756e74206d7573742062652067726561746572207468616e207a65726f600082015250565b6000611558602083611511565b915061156382611522565b602082019050919050565b600060208201905081810360008301526115878161154b565b9050919050565b600081519050919050565b600081905092915050565b60005b838110156115c25780820151818401526020810190506115a7565b60008484015250505050565b60006115d98261158e565b6115e38185611599565b93506115f38185602086016115a4565b80840191505092915050565b600061160b82846115ce565b915081905092915050565b7f496e76616c69642064657374696e6174696f6e20636861696e00000000000000600082015250565b600061164c601983611511565b915061165782611616565b602082019050919050565b6000602082019050818103600083015261167b8161163f565b9050919050565b7f427269646765206e6f7420736574000000000000000000000000000000000000600082015250565b60006116b8600e83611511565b91506116c382611682565b602082019050919050565b600060208201905081810360008301526116e7816116ab565b9050919050565b6116f781610cd4565b82525050565b600082825260208201905092915050565b50565b600061171e6000836116fd565b91506117298261170e565b600082019050919050565b600060a082019050611749600083018761106f565b611756602083018661106f565b61176360408301856116ee565b61177060608301846116ee565b818103608083015261178181611711565b905095945050505050565b60006060820190506117a1600083018661106f565b6117ae60208301856116ee565b6117bb60408301846116ee565b949350505050565b600081519050919050565b600082825260208201905092915050565b60006117ea826117c3565b6117f481856117ce565b93506118048185602086016115a4565b61180d81610d14565b840191505092915050565b600081519050919050565b600082825260208201905092915050565b6000819050602082019050919050565b61184d81610c96565b82525050565b61185c81610cd4565b82525050565b6040820160008201516118786000850182611844565b50602082015161188b6020850182611853565b50505050565b600061189d8383611862565b60408301905092915050565b6000602082019050919050565b60006118c182611818565b6118cb8185611823565b93506118d683611834565b8060005b838110156119075781516118ee8882611891565b97506118f9836118a9565b9250506001810190506118da565b5085935050505092915050565b600060a083016000830151848203600086015261193182826117df565b9150506020830151848203602086015261194b82826117df565b9150506040830151848203604086015261196582826118b6565b915050606083015161197a6060860182611844565b506080830151848203608086015261199282826117df565b9150508091505092915050565b60006040820190506119b46000830185611045565b81810360208301526119c68184611914565b90509392505050565b6000815190506119de816110ad565b92915050565b6000602082840312156119fa576119f9610c6c565b5b6000611a08848285016119cf565b91505092915050565b6000611a1c8261158e565b611a268185611511565b9350611a368185602086016115a4565b611a3f81610d14565b840191505092915050565b6000604082019050611a5f60008301856116ee565b8181036020830152611a718184611a11565b90509392505050565b7f4f6e6c79204343495020526f757465722063616e2063616c6c00000000000000600082015250565b6000611ab0601983611511565b9150611abb82611a7a565b602082019050919050565b60006020820190508181036000830152611adf81611aa3565b9050919050565b6000611af182610c76565b9050919050565b611b0181611ae6565b8114611b0c57600080fd5b50565b600081519050611b1e81611af8565b92915050565b600081519050611b3381610cde565b92915050565b600080600060608486031215611b5257611b51610c6c565b5b6000611b6086828701611b0f565b9350506020611b7186828701611b24565b9250506040611b8286828701611b24565b9150509250925092565b7f736f75726365436861696e000000000000000000000000000000000000000000600082015250565b6000611bc2600b83611511565b9150611bcd82611b8c565b602082019050919050565b6000604082019050611bed60008301846116ee565b8181036020830152611bfe81611bb5565b905092915050565b602082016000820151611c1c6000850182611853565b50505050565b6000602082019050611c376000830184611c06565b9291505056fea26469706673582212209b7e3862a628298071cf028945666bbd3673f4b239ae9bb930cd20c6b845b19464736f6c63430008140033",
  "linkReferences": {},
  "deployedLinkReferences": {}
}