{
  "_format": "hh-sol-artifact-1",
  "contractName": "LendingPool",
  "sourceName": "contracts/LendingPool.sol",
  "abi": [
    {
      "inputs": [
        {
          "internalType": "address",
          "name": "_stablecoin",
          "type": "address"
        },
        {
          "internalType": "address",
          "name": "_realEstateToken",
          "type": "address"
        },
        {
          "internalType": "address",
          "name": "_oracleConsumer",
          "type": "address"
        }
      ],
      "stateMutability": "nonpayable",
      "type": "constructor"
    },
    {
      "inputs": [
        {
          "internalType": "address",
          "name": "owner",
          "type": "address"
        }
      ],
      "name": "OwnableInvalidOwner",
      "type": "error"
    },
    {
      "inputs": [
        {
          "internalType": "address",
          "name": "account",
          "type": "address"
        }
      ],
      "name": "OwnableUnauthorizedAccount",
      "type": "error"
    },
    {
      "anonymous": false,
      "inputs": [
        {
          "indexed": true,
          "internalType": "address",
          "name": "user",
          "type": "address"
        },
        {
          "indexed": true,
          "internalType": "uint256",
          "name": "propertyId",
          "type": "uint256"
        },
        {
          "indexed": false,
          "internalType": "uint256",
          "name": "amount",
          "type": "uint256"
        }
      ],
      "name": "CollateralDeposited",
      "type": "event"
    },
    {
      "anonymous": false,
      "inputs": [
        {
          "indexed": true,
          "internalType": "uint256",
          "name": "propertyId",
          "type": "uint256"
        },
        {
          "indexed": false,
          "internalType": "uint256",
          "name": "newLTV",
          "type": "uint256"
        }
      ],
      "name": "LTVAdjusted",
      "type": "event"
    },
    {
      "anonymous": false,
      "inputs": [
        {
          "indexed": true,
          "internalType": "address",
          "name": "user",
          "type": "address"
        },
        {
          "indexed": false,
          "internalType": "uint256",
          "name": "amount",
          "type": "uint256"
        }
      ],
      "name": "LoanRepaid",
      "type": "event"
    },
    {
      "anonymous": false,
      "inputs": [
        {
          "indexed": true,
          "internalType": "address",
          "name": "previousOwner",
          "type": "address"
        },
        {
          "indexed": true,
          "internalType": "address",
          "name": "newOwner",
          "type": "address"
        }
      ],
      "name": "OwnershipTransferred",
      "type": "event"
    },
    {
      "anonymous": false,
      "inputs": [
        {
          "indexed": true,
          "internalType": "address",
          "name": "user",
          "type": "address"
        },
        {
          "indexed": false,
          "internalType": "uint256",
          "name": "amount",
          "type": "uint256"
        }
      ],
      "name": "StablecoinBorrowed",
      "type": "event"
    },
    {
      "inputs": [
        {
          "internalType": "uint256",
          "name": "_propertyId",
          "type": "uint256"
        }
      ],
      "name": "adjustLTV",
      "outputs": [],
      "stateMutability": "nonpayable",
      "type": "function"
    },
    {
      "inputs": [
        {
          "internalType": "uint256",
          "name": "_amount",
          "type": "uint256"
        }
      ],
      "name": "borrowStablecoin",
      "outputs": [],
      "stateMutability": "nonpayable",
      "type": "function"
    },
    {
      "inputs": [
        {
          "internalType": "uint256",
          "name": "_propertyId",
          "type": "uint256"
        },
        {
          "internalType": "uint256",
          "name": "_collateralAmount",
          "type": "uint256"
        }
      ],
      "name": "calculateMaxBorrow",
      "outputs": [
        {
          "internalType": "uint256",
          "name": "",
          "type": "uint256"
        }
      ],
      "stateMutability": "view",
      "type": "function"
    },
    {
      "inputs": [
        {
          "internalType": "uint256",
          "name": "_propertyId",
          "type": "uint256"
        },
        {
          "internalType": "uint256",
          "name": "_amount",
          "type": "uint256"
        }
      ],
      "name": "depositCollateral",
      "outputs": [],
      "stateMutability": "nonpayable",
      "type": "function"
    },
    {
      "inputs": [
        {
          "internalType": "address",
          "name": "",
          "type": "address"
        }
      ],
      "name": "loans",
      "outputs": [
        {
          "internalType": "uint256",
          "name": "propertyId",
          "type": "uint256"
        },
        {
          "internalType": "uint256",
          "name": "collateralAmount",
          "type": "uint256"
        },
        {
          "internalType": "uint256",
          "name": "borrowedAmount",
          "type": "uint256"
        }
      ],
      "stateMutability": "view",
      "type": "function"
    },
    {
      "inputs": [
        {
          "internalType": "uint256",
          "name": "",
          "type": "uint256"
        }
      ],
      "name": "ltvRatios",
      "outputs": [
        {
          "internalType": "uint256",
          "name": "",
          "type": "uint256"
        }
      ],
      "stateMutability": "view",
      "type": "function"
    },
    {
      "inputs": [
        {
          "internalType": "address",
          "name": "",
          "type": "address"
        },
        {
          "internalType": "address",
          "name": "",
          "type": "address"
        },
        {
          "internalType": "uint256",
          "name": "",
          "type": "uint256"
        },
        {
          "internalType": "uint256",
          "name": "",
          "type": "uint256"
        },
        {
          "internalType": "bytes",
          "name": "",
          "type": "bytes"
        }
      ],
      "name": "onERC1155Received",
      "outputs": [
        {
          "internalType": "bytes4",
          "name": "",
          "type": "bytes4"
        }
      ],
      "stateMutability": "pure",
      "type": "function"
    },
    {
      "inputs": [],
      "name": "oracleConsumer",
      "outputs": [
        {
          "internalType": "contract IOracleConsumer",
          "name": "",
          "type": "address"
        }
      ],
      "stateMutability": "view",
      "type": "function"
    },
    {
      "inputs": [],
      "name": "owner",
      "outputs": [
        {
          "internalType": "address",
          "name": "",
          "type": "address"
        }
      ],
      "stateMutability": "view",
      "type": "function"
    },
    {
      "inputs": [],
      "name": "realEstateToken",
      "outputs": [
        {
          "internalType": "contract IRealEstateToken",
          "name": "",
          "type": "address"
        }
      ],
      "stateMutability": "view",
      "type": "function"
    },
    {
      "inputs": [],
      "name": "renounceOwnership",
      "outputs": [],
      "stateMutability": "nonpayable",
      "type": "function"
    },
    {
      "inputs": [
        {
          "internalType": "uint256",
          "name": "_amount",
          "type": "uint256"
        }
      ],
      "name": "repayLoan",
      "outputs": [],
      "stateMutability": "nonpayable",
      "type": "function"
    },
    {
      "inputs": [],
      "name": "stablecoin",
      "outputs": [
        {
          "internalType": "contract IERC20",
          "name": "",
          "type": "address"
        }
      ],
      "stateMutability": "view",
      "type": "function"
    },
    {
      "inputs": [
        {
          "internalType": "address",
          "name": "newOwner",
          "type": "address"
        }
      ],
      "name": "transferOwnership",
      "outputs": [],
      "stateMutability": "nonpayable",
      "type": "function"
    }
  ],
  "bytecode": "0x60806040523480156200001157600080fd5b5060405162001cb638038062001cb68339818101604052810190620000379190620002b9565b33600073ffffffffffffffffffffffffffffffffffffffff168173ffffffffffffffffffffffffffffffffffffffff1603620000ad5760006040517f1e4fbdf7000000000000000000000000000000000000000000000000000000008152600401620000a4919062000326565b60405180910390fd5b620000be816200018b60201b60201c565b5082600160006101000a81548173ffffffffffffffffffffffffffffffffffffffff021916908373ffffffffffffffffffffffffffffffffffffffff16021790555081600260006101000a81548173ffffffffffffffffffffffffffffffffffffffff021916908373ffffffffffffffffffffffffffffffffffffffff16021790555080600360006101000a81548173ffffffffffffffffffffffffffffffffffffffff021916908373ffffffffffffffffffffffffffffffffffffffff16021790555050505062000343565b60008060009054906101000a900473ffffffffffffffffffffffffffffffffffffffff169050816000806101000a81548173ffffffffffffffffffffffffffffffffffffffff021916908373ffffffffffffffffffffffffffffffffffffffff1602179055508173ffffffffffffffffffffffffffffffffffffffff168173ffffffffffffffffffffffffffffffffffffffff167f8be0079c531659141344cd1fd0a4f28419497f9722a3daafe3b4186f6b6457e060405160405180910390a35050565b600080fd5b600073ffffffffffffffffffffffffffffffffffffffff82169050919050565b6000620002818262000254565b9050919050565b620002938162000274565b81146200029f57600080fd5b50565b600081519050620002b38162000288565b92915050565b600080600060608486031215620002d557620002d46200024f565b5b6000620002e586828701620002a2565b9350506020620002f886828701620002a2565b92505060406200030b86828701620002a2565b9150509250925092565b620003208162000274565b82525050565b60006020820190506200033d600083018462000315565b92915050565b61196380620003536000396000f3fe608060405234801561001057600080fd5b50600436106100ea5760003560e01c8063dadb7e791161008c578063ece1373211610066578063ece137321461023b578063f23a6e6114610257578063f2fde38b14610287578063f857930c146102a3576100ea565b8063dadb7e79146101d1578063e6600543146101ed578063e9cbd8221461021d576100ea565b806373b4086b116100c857806373b4086b146101475780638da5cb5b14610179578063ab7b1c8914610197578063d4e9f951146101b3576100ea565b806319d67130146100ef5780636c84dd811461011f578063715018a61461013d575b600080fd5b61010960048036038101906101049190610ec4565b6102bf565b6040516101169190610f13565b60405180910390f35b61012761031c565b6040516101349190610fad565b60405180910390f35b610145610342565b005b610161600480360381019061015c9190611006565b610356565b60405161017093929190611033565b60405180910390f35b610181610380565b60405161018e9190611079565b60405180910390f35b6101b160048036038101906101ac9190611094565b6103a9565b005b6101bb610645565b6040516101c891906110e2565b60405180910390f35b6101eb60048036038101906101e69190611094565b61066b565b005b61020760048036038101906102029190611094565b6108d5565b6040516102149190610f13565b60405180910390f35b6102256108ed565b604051610232919061111e565b60405180910390f35b61025560048036038101906102509190610ec4565b610913565b005b610271600480360381019061026c919061127f565b610b3d565b60405161027e9190611351565b60405180910390f35b6102a1600480360381019061029c9190611006565b610b52565b005b6102bd60048036038101906102b89190611094565b610bd8565b005b60008060006005600086815260200190815260200160002054146102f65760056000858152602001908152602001600020546102f9565b60325b905060648184610309919061139b565b610313919061140c565b91505092915050565b600360009054906101000a900473ffffffffffffffffffffffffffffffffffffffff1681565b61034a610d27565b6103546000610dae565b565b60046020528060005260406000206000915090508060000154908060010154908060020154905083565b60008060009054906101000a900473ffffffffffffffffffffffffffffffffffffffff16905090565b6000600460003373ffffffffffffffffffffffffffffffffffffffff1673ffffffffffffffffffffffffffffffffffffffff16815260200190815260200160002090508181600201541015610433576040517f08c379a000000000000000000000000000000000000000000000000000000000815260040161042a9061149a565b60405180910390fd5b600160009054906101000a900473ffffffffffffffffffffffffffffffffffffffff1673ffffffffffffffffffffffffffffffffffffffff166323b872dd3330856040518463ffffffff1660e01b8152600401610492939291906114ba565b6020604051808303816000875af11580156104b1573d6000803e3d6000fd5b505050506040513d601f19601f820116820180604052508101906104d59190611529565b50818160020160008282546104ea9190611556565b9250508190555060008160020154036105f357600260009054906101000a900473ffffffffffffffffffffffffffffffffffffffff1673ffffffffffffffffffffffffffffffffffffffff1663f242432a3033846000015485600101546040518563ffffffff1660e01b815260040161056694939291906115c1565b600060405180830381600087803b15801561058057600080fd5b505af1158015610594573d6000803e3d6000fd5b50505050600460003373ffffffffffffffffffffffffffffffffffffffff1673ffffffffffffffffffffffffffffffffffffffff1681526020019081526020016000206000808201600090556001820160009055600282016000905550505b3373ffffffffffffffffffffffffffffffffffffffff167fc200a1f31dd659e356e0f112c82558e25f49f7b0f84438691cd96f5cb3558823836040516106399190610f13565b60405180910390a25050565b600260009054906101000a900473ffffffffffffffffffffffffffffffffffffffff1681565b6000600460003373ffffffffffffffffffffffffffffffffffffffff1673ffffffffffffffffffffffffffffffffffffffff168152602001908152602001600020905060008160010154116106f5576040517f08c379a00000000000000000000000000000000000000000000000000000000081526004016106ec90611665565b60405180910390fd5b60008211610738576040517f08c379a000000000000000000000000000000000000000000000000000000000815260040161072f906116d1565b60405180910390fd5b600081600201541461077f576040517f08c379a00000000000000000000000000000000000000000000000000000000081526004016107769061173d565b60405180910390fd5b6000610793826000015483600101546102bf565b9050808311156107d8576040517f08c379a00000000000000000000000000000000000000000000000000000000081526004016107cf906117a9565b60405180910390fd5b828260020181905550600160009054906101000a900473ffffffffffffffffffffffffffffffffffffffff1673ffffffffffffffffffffffffffffffffffffffff1663a9059cbb33856040518363ffffffff1660e01b815260040161083e9291906117c9565b6020604051808303816000875af115801561085d573d6000803e3d6000fd5b505050506040513d601f19601f820116820180604052508101906108819190611529565b503373ffffffffffffffffffffffffffffffffffffffff167f55ca543acfe189813a500eaff658acafb5d2345c0db5314154e00ac8c9d3b91f846040516108c89190610f13565b60405180910390a2505050565b60056020528060005260406000206000915090505481565b600160009054906101000a900473ffffffffffffffffffffffffffffffffffffffff1681565b60008111610956576040517f08c379a000000000000000000000000000000000000000000000000000000000815260040161094d906116d1565b60405180910390fd5b6000600460003373ffffffffffffffffffffffffffffffffffffffff1673ffffffffffffffffffffffffffffffffffffffff16815260200190815260200160002060020154146109db576040517f08c379a00000000000000000000000000000000000000000000000000000000081526004016109d29061183e565b60405180910390fd5b600260009054906101000a900473ffffffffffffffffffffffffffffffffffffffff1673ffffffffffffffffffffffffffffffffffffffff1663f242432a333085856040518563ffffffff1660e01b8152600401610a3c94939291906115c1565b600060405180830381600087803b158015610a5657600080fd5b505af1158015610a6a573d6000803e3d6000fd5b5050505060405180606001604052808381526020018281526020016000815250600460003373ffffffffffffffffffffffffffffffffffffffff1673ffffffffffffffffffffffffffffffffffffffff168152602001908152602001600020600082015181600001556020820151816001015560408201518160020155905050813373ffffffffffffffffffffffffffffffffffffffff167ff4d587c98d234ca4d147061e6b5167e7f41ee17f11562a9f0b49570abece859e83604051610b319190610f13565b60405180910390a35050565b600063f23a6e6160e01b905095945050505050565b610b5a610d27565b600073ffffffffffffffffffffffffffffffffffffffff168173ffffffffffffffffffffffffffffffffffffffff1603610bcc5760006040517f1e4fbdf7000000000000000000000000000000000000000000000000000000008152600401610bc39190611079565b60405180910390fd5b610bd581610dae565b50565b610be0610d27565b6000600360009054906101000a900473ffffffffffffffffffffffffffffffffffffffff1673ffffffffffffffffffffffffffffffffffffffff16638e15f4736040518163ffffffff1660e01b8152600401602060405180830381865afa158015610c4f573d6000803e3d6000fd5b505050506040513d601f19601f82011682018060405250810190610c739190611894565b905060008113610cb8576040517f08c379a0000000000000000000000000000000000000000000000000000000008152600401610caf9061190d565b60405180910390fd5b60006103e88211610cca576032610ccd565b60465b60ff169050806005600085815260200190815260200160002081905550827f179ff8af562f492fe1a1aeb20c1fd2c942f7738b0b81bb4921feeb7ee106b03782604051610d1a9190610f13565b60405180910390a2505050565b610d2f610e72565b73ffffffffffffffffffffffffffffffffffffffff16610d4d610380565b73ffffffffffffffffffffffffffffffffffffffff1614610dac57610d70610e72565b6040517f118cdaa7000000000000000000000000000000000000000000000000000000008152600401610da39190611079565b60405180910390fd5b565b60008060009054906101000a900473ffffffffffffffffffffffffffffffffffffffff169050816000806101000a81548173ffffffffffffffffffffffffffffffffffffffff021916908373ffffffffffffffffffffffffffffffffffffffff1602179055508173ffffffffffffffffffffffffffffffffffffffff168173ffffffffffffffffffffffffffffffffffffffff167f8be0079c531659141344cd1fd0a4f28419497f9722a3daafe3b4186f6b6457e060405160405180910390a35050565b600033905090565b6000604051905090565b600080fd5b600080fd5b6000819050919050565b610ea181610e8e565b8114610eac57600080fd5b50565b600081359050610ebe81610e98565b92915050565b60008060408385031215610edb57610eda610e84565b5b6000610ee985828601610eaf565b9250506020610efa85828601610eaf565b9150509250929050565b610f0d81610e8e565b82525050565b6000602082019050610f286000830184610f04565b92915050565b600073ffffffffffffffffffffffffffffffffffffffff82169050919050565b6000819050919050565b6000610f73610f6e610f6984610f2e565b610f4e565b610f2e565b9050919050565b6000610f8582610f58565b9050919050565b6000610f9782610f7a565b9050919050565b610fa781610f8c565b82525050565b6000602082019050610fc26000830184610f9e565b92915050565b6000610fd382610f2e565b9050919050565b610fe381610fc8565b8114610fee57600080fd5b50565b60008135905061100081610fda565b92915050565b60006020828403121561101c5761101b610e84565b5b600061102a84828501610ff1565b91505092915050565b60006060820190506110486000830186610f04565b6110556020830185610f04565b6110626040830184610f04565b949350505050565b61107381610fc8565b82525050565b600060208201905061108e600083018461106a565b92915050565b6000602082840312156110aa576110a9610e84565b5b60006110b884828501610eaf565b91505092915050565b60006110cc82610f7a565b9050919050565b6110dc816110c1565b82525050565b60006020820190506110f760008301846110d3565b92915050565b600061110882610f7a565b9050919050565b611118816110fd565b82525050565b6000602082019050611133600083018461110f565b92915050565b600080fd5b600080fd5b6000601f19601f8301169050919050565b7f4e487b7100000000000000000000000000000000000000000000000000000000600052604160045260246000fd5b61118c82611143565b810181811067ffffffffffffffff821117156111ab576111aa611154565b5b80604052505050565b60006111be610e7a565b90506111ca8282611183565b919050565b600067ffffffffffffffff8211156111ea576111e9611154565b5b6111f382611143565b9050602081019050919050565b82818337600083830152505050565b600061122261121d846111cf565b6111b4565b90508281526020810184848401111561123e5761123d61113e565b5b611249848285611200565b509392505050565b600082601f83011261126657611265611139565b5b813561127684826020860161120f565b91505092915050565b600080600080600060a0868803121561129b5761129a610e84565b5b60006112a988828901610ff1565b95505060206112ba88828901610ff1565b94505060406112cb88828901610eaf565b93505060606112dc88828901610eaf565b925050608086013567ffffffffffffffff8111156112fd576112fc610e89565b5b61130988828901611251565b9150509295509295909350565b60007fffffffff0000000000000000000000000000000000000000000000000000000082169050919050565b61134b81611316565b82525050565b60006020820190506113666000830184611342565b92915050565b7f4e487b7100000000000000000000000000000000000000000000000000000000600052601160045260246000fd5b60006113a682610e8e565b91506113b183610e8e565b92508282026113bf81610e8e565b915082820484148315176113d6576113d561136c565b5b5092915050565b7f4e487b7100000000000000000000000000000000000000000000000000000000600052601260045260246000fd5b600061141782610e8e565b915061142283610e8e565b925082611432576114316113dd565b5b828204905092915050565b600082825260208201905092915050565b7f496e76616c69642072657061796d656e7420616d6f756e740000000000000000600082015250565b600061148460188361143d565b915061148f8261144e565b602082019050919050565b600060208201905081810360008301526114b381611477565b9050919050565b60006060820190506114cf600083018661106a565b6114dc602083018561106a565b6114e96040830184610f04565b949350505050565b60008115159050919050565b611506816114f1565b811461151157600080fd5b50565b600081519050611523816114fd565b92915050565b60006020828403121561153f5761153e610e84565b5b600061154d84828501611514565b91505092915050565b600061156182610e8e565b915061156c83610e8e565b92508282039050818111156115845761158361136c565b5b92915050565b600082825260208201905092915050565b50565b60006115ab60008361158a565b91506115b68261159b565b600082019050919050565b600060a0820190506115d6600083018761106a565b6115e3602083018661106a565b6115f06040830185610f04565b6115fd6060830184610f04565b818103608083015261160e8161159e565b905095945050505050565b7f4e6f20636f6c6c61746572616c206465706f7369746564000000000000000000600082015250565b600061164f60178361143d565b915061165a82611619565b602082019050919050565b6000602082019050818103600083015261167e81611642565b9050919050565b7f416d6f756e74206d7573742062652067726561746572207468616e207a65726f600082015250565b60006116bb60208361143d565b91506116c682611685565b602082019050919050565b600060208201905081810360008301526116ea816116ae565b9050919050565b7f4578697374696e67206c6f616e20616374697665000000000000000000000000600082015250565b600061172760148361143d565b9150611732826116f1565b602082019050919050565b600060208201905081810360008301526117568161171a565b9050919050565b7f426f72726f7720616d6f756e742065786365656473204c5456206c696d697400600082015250565b6000611793601f8361143d565b915061179e8261175d565b602082019050919050565b600060208201905081810360008301526117c281611786565b9050919050565b60006040820190506117de600083018561106a565b6117eb6020830184610f04565b9392505050565b7f5265706179206578697374696e67206c6f616e20666972737400000000000000600082015250565b600061182860198361143d565b9150611833826117f2565b602082019050919050565b600060208201905081810360008301526118578161181b565b9050919050565b6000819050919050565b6118718161185e565b811461187c57600080fd5b50565b60008151905061188e81611868565b92915050565b6000602082840312156118aa576118a9610e84565b5b60006118b88482850161187f565b91505092915050565b7f496e76616c69642070726963652066726f6d206f7261636c6500000000000000600082015250565b60006118f760198361143d565b9150611902826118c1565b602082019050919050565b60006020820190508181036000830152611926816118ea565b905091905056fea2646970667358221220713f5a673c9365eee34ba058e0f5566140eb8397915ef362bb3964ffb45893ae64736f6c63430008140033",
  "linkReferences": {},
  "deployedLinkReferences": {}
}