{
  "_format": "hh-sol-artifact-1",
  "contractName": "PoRVerifier",
  "sourceName": "contracts/PoRVerifier.sol",
  "abi": [
    {
      "inputs": [],
      "stateMutability": "nonpayable",
      "type": "constructor"
    },
    {
      "inputs": [
        {
          "internalType": "address",
          "name": "owner",
          "type": "address"
        }
      ],
      "name": "OwnableInvalidOwner",
      "type": "error"
    },
    {
      "inputs": [
        {
          "internalType": "address",
          "name": "account",
          "type": "address"
        }
      ],
      "name": "OwnableUnauthorizedAccount",
      "type": "error"
    },
    {
      "anonymous": false,
      "inputs": [
        {
          "indexed": true,
          "internalType": "address",
          "name": "previousOwner",
          "type": "address"
        },
        {
          "indexed": true,
          "internalType": "address",
          "name": "newOwner",
          "type": "address"
        }
      ],
      "name": "OwnershipTransferred",
      "type": "event"
    },
    {
      "anonymous": false,
      "inputs": [
        {
          "indexed": true,
          "internalType": "uint256",
          "name": "propertyId",
          "type": "uint256"
        },
        {
          "indexed": false,
          "internalType": "address",
          "name": "feedAddress",
          "type": "address"
        }
      ],
      "name": "PoRFeedSet",
      "type": "event"
    },
    {
      "anonymous": false,
      "inputs": [
        {
          "indexed": true,
          "internalType": "uint256",
          "name": "propertyId",
          "type": "uint256"
        },
        {
          "indexed": false,
          "internalType": "bool",
          "name": "isValid",
          "type": "bool"
        }
      ],
      "name": "ReserveStatusChecked",
      "type": "event"
    },
    {
      "inputs": [
        {
          "internalType": "uint256",
          "name": "_propertyId",
          "type": "uint256"
        }
      ],
      "name": "checkReserveStatus",
      "outputs": [
        {
          "internalType": "bool",
          "name": "",
          "type": "bool"
        }
      ],
      "stateMutability": "nonpayable",
      "type": "function"
    },
    {
      "inputs": [],
      "name": "owner",
      "outputs": [
        {
          "internalType": "address",
          "name": "",
          "type": "address"
        }
      ],
      "stateMutability": "view",
      "type": "function"
    },
    {
      "inputs": [
        {
          "internalType": "uint256",
          "name": "_propertyId",
          "type": "uint256"
        }
      ],
      "name": "pauseOperations",
      "outputs": [],
      "stateMutability": "nonpayable",
      "type": "function"
    },
    {
      "inputs": [
        {
          "internalType": "uint256",
          "name": "",
          "type": "uint256"
        }
      ],
      "name": "propertyPoRFeed",
      "outputs": [
        {
          "internalType": "address",
          "name": "",
          "type": "address"
        }
      ],
      "stateMutability": "view",
      "type": "function"
    },
    {
      "inputs": [],
      "name": "renounceOwnership",
      "outputs": [],
      "stateMutability": "nonpayable",
      "type": "function"
    },
    {
      "inputs": [
        {
          "internalType": "uint256",
          "name": "_propertyId",
          "type": "uint256"
        },
        {
          "internalType": "address",
          "name": "_feedAddress",
          "type": "address"
        }
      ],
      "name": "setPoRFeed",
      "outputs": [],
      "stateMutability": "nonpayable",
      "type": "function"
    },
    {
      "inputs": [
        {
          "internalType": "address",
          "name": "newOwner",
          "type": "address"
        }
      ],
      "name": "transferOwnership",
      "outputs": [],
      "stateMutability": "nonpayable",
      "type": "function"
    }
  ],
  "bytecode": "0x608060405234801561001057600080fd5b5033600073ffffffffffffffffffffffffffffffffffffffff168173ffffffffffffffffffffffffffffffffffffffff16036100845760006040517f1e4fbdf700000000000000000000000000000000000000000000000000000000815260040161007b919061019e565b60405180910390fd5b6100938161009960201b60201c565b506101b9565b60008060009054906101000a900473ffffffffffffffffffffffffffffffffffffffff169050816000806101000a81548173ffffffffffffffffffffffffffffffffffffffff021916908373ffffffffffffffffffffffffffffffffffffffff1602179055508173ffffffffffffffffffffffffffffffffffffffff168173ffffffffffffffffffffffffffffffffffffffff167f8be0079c531659141344cd1fd0a4f28419497f9722a3daafe3b4186f6b6457e060405160405180910390a35050565b600073ffffffffffffffffffffffffffffffffffffffff82169050919050565b60006101888261015d565b9050919050565b6101988161017d565b82525050565b60006020820190506101b3600083018461018f565b92915050565b61093e806101c86000396000f3fe608060405234801561001057600080fd5b506004361061007d5760003560e01c80638dfec6401161005b5780638dfec640146100da578063e18b69d01461010a578063e609be4014610126578063f2fde38b146101425761007d565b806322b7fce314610082578063715018a6146100b25780638da5cb5b146100bc575b600080fd5b61009c6004803603810190610097919061062b565b61015e565b6040516100a99190610699565b60405180910390f35b6100ba610191565b005b6100c46101a5565b6040516100d19190610699565b60405180910390f35b6100f460048036038101906100ef919061062b565b6101ce565b60405161010191906106cf565b60405180910390f35b610124600480360381019061011f919061062b565b61033d565b005b610140600480360381019061013b9190610716565b610381565b005b61015c60048036038101906101579190610756565b610417565b005b60016020528060005260406000206000915054906101000a900473ffffffffffffffffffffffffffffffffffffffff1681565b61019961049d565b6101a36000610524565b565b60008060009054906101000a900473ffffffffffffffffffffffffffffffffffffffff16905090565b6000806001600084815260200190815260200160002060009054906101000a900473ffffffffffffffffffffffffffffffffffffffff169050600073ffffffffffffffffffffffffffffffffffffffff168173ffffffffffffffffffffffffffffffffffffffff1603610276576040517f08c379a000000000000000000000000000000000000000000000000000000000815260040161026d906107e0565b60405180910390fd5b600081905060008173ffffffffffffffffffffffffffffffffffffffff1663feaf968c6040518163ffffffff1660e01b815260040160a060405180830381865afa1580156102c8573d6000803e3d6000fd5b505050506040513d601f19601f820116820180604052508101906102ec919061088d565b50505091505060008082139050857f4f405b2d6c7119778d912f2fcbc87a28868e906336c22f2c372d90ba388bc81e8260405161032991906106cf565b60405180910390a280945050505050919050565b61034561049d565b807f4f405b2d6c7119778d912f2fcbc87a28868e906336c22f2c372d90ba388bc81e600060405161037691906106cf565b60405180910390a250565b61038961049d565b806001600084815260200190815260200160002060006101000a81548173ffffffffffffffffffffffffffffffffffffffff021916908373ffffffffffffffffffffffffffffffffffffffff160217905550817f474bba811aa85b157c96c6a08f083f5657ad3069ca0c21e90357ed6ac9e4d29f8260405161040b9190610699565b60405180910390a25050565b61041f61049d565b600073ffffffffffffffffffffffffffffffffffffffff168173ffffffffffffffffffffffffffffffffffffffff16036104915760006040517f1e4fbdf70000000000000000000000000000000000000000000000000000000081526004016104889190610699565b60405180910390fd5b61049a81610524565b50565b6104a56105e8565b73ffffffffffffffffffffffffffffffffffffffff166104c36101a5565b73ffffffffffffffffffffffffffffffffffffffff1614610522576104e66105e8565b6040517f118cdaa70000000000000000000000000000000000000000000000000000000081526004016105199190610699565b60405180910390fd5b565b60008060009054906101000a900473ffffffffffffffffffffffffffffffffffffffff169050816000806101000a81548173ffffffffffffffffffffffffffffffffffffffff021916908373ffffffffffffffffffffffffffffffffffffffff1602179055508173ffffffffffffffffffffffffffffffffffffffff168173ffffffffffffffffffffffffffffffffffffffff167f8be0079c531659141344cd1fd0a4f28419497f9722a3daafe3b4186f6b6457e060405160405180910390a35050565b600033905090565b600080fd5b6000819050919050565b610608816105f5565b811461061357600080fd5b50565b600081359050610625816105ff565b92915050565b600060208284031215610641576106406105f0565b5b600061064f84828501610616565b91505092915050565b600073ffffffffffffffffffffffffffffffffffffffff82169050919050565b600061068382610658565b9050919050565b61069381610678565b82525050565b60006020820190506106ae600083018461068a565b92915050565b60008115159050919050565b6106c9816106b4565b82525050565b60006020820190506106e460008301846106c0565b92915050565b6106f381610678565b81146106fe57600080fd5b50565b600081359050610710816106ea565b92915050565b6000806040838503121561072d5761072c6105f0565b5b600061073b85828601610616565b925050602061074c85828601610701565b9150509250929050565b60006020828403121561076c5761076b6105f0565b5b600061077a84828501610701565b91505092915050565b600082825260208201905092915050565b7f506f522066656564206e6f742073657420666f722070726f7065727479000000600082015250565b60006107ca601d83610783565b91506107d582610794565b602082019050919050565b600060208201905081810360008301526107f9816107bd565b9050919050565b600069ffffffffffffffffffff82169050919050565b61081f81610800565b811461082a57600080fd5b50565b60008151905061083c81610816565b92915050565b6000819050919050565b61085581610842565b811461086057600080fd5b50565b6000815190506108728161084c565b92915050565b600081519050610887816105ff565b92915050565b600080600080600060a086880312156108a9576108a86105f0565b5b60006108b78882890161082d565b95505060206108c888828901610863565b94505060406108d988828901610878565b93505060606108ea88828901610878565b92505060806108fb8882890161082d565b915050929550929590935056fea2646970667358221220fe48c3fb95f834d99e8293b48282d27694c7c538d51b4e63b3f46ef87de5beb864736f6c63430008140033",
  "linkReferences": {},
  "deployedLinkReferences": {}
}