{
  "_format": "hh-sol-artifact-1",
  "contractName": "PropertyManager",
  "sourceName": "contracts/PropertyManager.sol",
  "abi": [
    {
      "inputs": [
        {
          "internalType": "address",
          "name": "functionsRouter",
          "type": "address"
        },
        {
          "internalType": "bytes32",
          "name": "_donId",
          "type": "bytes32"
        }
      ],
      "stateMutability": "nonpayable",
      "type": "constructor"
    },
    {
      "inputs": [],
      "name": "EmptyArgs",
      "type": "error"
    },
    {
      "inputs": [],
      "name": "EmptySource",
      "type": "error"
    },
    {
      "inputs": [],
      "name": "NoInlineSecrets",
      "type": "error"
    },
    {
      "inputs": [],
      "name": "OnlyRouterCanFulfill",
      "type": "error"
    },
    {
      "inputs": [
        {
          "internalType": "address",
          "name": "owner",
          "type": "address"
        }
      ],
      "name": "OwnableInvalidOwner",
      "type": "error"
    },
    {
      "inputs": [
        {
          "internalType": "address",
          "name": "account",
          "type": "address"
        }
      ],
      "name": "OwnableUnauthorizedAccount",
      "type": "error"
    },
    {
      "anonymous": false,
      "inputs": [
        {
          "indexed": true,
          "internalType": "uint256",
          "name": "propertyId",
          "type": "uint256"
        },
        {
          "indexed": false,
          "internalType": "string",
          "name": "metadataURI",
          "type": "string"
        }
      ],
      "name": "MetadataUpdated",
      "type": "event"
    },
    {
      "anonymous": false,
      "inputs": [
        {
          "indexed": true,
          "internalType": "address",
          "name": "previousOwner",
          "type": "address"
        },
        {
          "indexed": true,
          "internalType": "address",
          "name": "newOwner",
          "type": "address"
        }
      ],
      "name": "OwnershipTransferred",
      "type": "event"
    },
    {
      "anonymous": false,
      "inputs": [
        {
          "indexed": true,
          "internalType": "uint256",
          "name": "propertyId",
          "type": "uint256"
        },
        {
          "indexed": false,
          "internalType": "string",
          "name": "metadataURI",
          "type": "string"
        },
        {
          "indexed": false,
          "internalType": "uint256",
          "name": "initialValue",
          "type": "uint256"
        }
      ],
      "name": "PropertySubmitted",
      "type": "event"
    },
    {
      "anonymous": false,
      "inputs": [
        {
          "indexed": true,
          "internalType": "uint256",
          "name": "propertyId",
          "type": "uint256"
        }
      ],
      "name": "PropertyVerified",
      "type": "event"
    },
    {
      "anonymous": false,
      "inputs": [
        {
          "indexed": true,
          "internalType": "bytes32",
          "name": "id",
          "type": "bytes32"
        }
      ],
      "name": "RequestFulfilled",
      "type": "event"
    },
    {
      "anonymous": false,
      "inputs": [
        {
          "indexed": true,
          "internalType": "bytes32",
          "name": "id",
          "type": "bytes32"
        }
      ],
      "name": "RequestSent",
      "type": "event"
    },
    {
      "anonymous": false,
      "inputs": [
        {
          "indexed": true,
          "internalType": "uint256",
          "name": "propertyId",
          "type": "uint256"
        },
        {
          "indexed": false,
          "internalType": "bytes32",
          "name": "requestId",
          "type": "bytes32"
        }
      ],
      "name": "VerificationRequested",
      "type": "event"
    },
    {
      "inputs": [],
      "name": "donId",
      "outputs": [
        {
          "internalType": "bytes32",
          "name": "",
          "type": "bytes32"
        }
      ],
      "stateMutability": "view",
      "type": "function"
    },
    {
      "inputs": [
        {
          "internalType": "uint256",
          "name": "_propertyId",
          "type": "uint256"
        }
      ],
      "name": "getPropertyDetails",
      "outputs": [
        {
          "internalType": "string",
          "name": "",
          "type": "string"
        },
        {
          "internalType": "bool",
          "name": "",
          "type": "bool"
        },
        {
          "internalType": "uint256",
          "name": "",
          "type": "uint256"
        },
        {
          "internalType": "uint256",
          "name": "",
          "type": "uint256"
        }
      ],
      "stateMutability": "view",
      "type": "function"
    },
    {
      "inputs": [
        {
          "internalType": "bytes32",
          "name": "requestId",
          "type": "bytes32"
        },
        {
          "internalType": "bytes",
          "name": "response",
          "type": "bytes"
        },
        {
          "internalType": "bytes",
          "name": "err",
          "type": "bytes"
        }
      ],
      "name": "handleOracleFulfillment",
      "outputs": [],
      "stateMutability": "nonpayable",
      "type": "function"
    },
    {
      "inputs": [
        {
          "internalType": "uint256",
          "name": "_propertyId",
          "type": "uint256"
        },
        {
          "internalType": "address",
          "name": "_to",
          "type": "address"
        },
        {
          "internalType": "uint256",
          "name": "_amount",
          "type": "uint256"
        }
      ],
      "name": "mintTokens",
      "outputs": [],
      "stateMutability": "nonpayable",
      "type": "function"
    },
    {
      "inputs": [],
      "name": "oracleConsumer",
      "outputs": [
        {
          "internalType": "contract IOracleConsumer",
          "name": "",
          "type": "address"
        }
      ],
      "stateMutability": "view",
      "type": "function"
    },
    {
      "inputs": [],
      "name": "owner",
      "outputs": [
        {
          "internalType": "address",
          "name": "",
          "type": "address"
        }
      ],
      "stateMutability": "view",
      "type": "function"
    },
    {
      "inputs": [
        {
          "internalType": "uint256",
          "name": "",
          "type": "uint256"
        }
      ],
      "name": "properties",
      "outputs": [
        {
          "internalType": "string",
          "name": "metadataURI",
          "type": "string"
        },
        {
          "internalType": "bool",
          "name": "verified",
          "type": "bool"
        },
        {
          "internalType": "uint256",
          "name": "initialValue",
          "type": "uint256"
        },
        {
          "internalType": "uint256",
          "name": "initialIndex",
          "type": "uint256"
        }
      ],
      "stateMutability": "view",
      "type": "function"
    },
    {
      "inputs": [],
      "name": "propertyCount",
      "outputs": [
        {
          "internalType": "uint256",
          "name": "",
          "type": "uint256"
        }
      ],
      "stateMutability": "view",
      "type": "function"
    },
    {
      "inputs": [],
      "name": "realEstateToken",
      "outputs": [
        {
          "internalType": "contract IRealEstateToken",
          "name": "",
          "type": "address"
        }
      ],
      "stateMutability": "view",
      "type": "function"
    },
    {
      "inputs": [],
      "name": "renounceOwnership",
      "outputs": [],
      "stateMutability": "nonpayable",
      "type": "function"
    },
    {
      "inputs": [
        {
          "internalType": "bytes32",
          "name": "",
          "type": "bytes32"
        }
      ],
      "name": "requestToProperty",
      "outputs": [
        {
          "internalType": "uint256",
          "name": "",
          "type": "uint256"
        }
      ],
      "stateMutability": "view",
      "type": "function"
    },
    {
      "inputs": [
        {
          "internalType": "bytes32",
          "name": "_donId",
          "type": "bytes32"
        }
      ],
      "name": "setDonId",
      "outputs": [],
      "stateMutability": "nonpayable",
      "type": "function"
    },
    {
      "inputs": [
        {
          "internalType": "uint256",
          "name": "_propertyId",
          "type": "uint256"
        }
      ],
      "name": "setInitialIndex",
      "outputs": [],
      "stateMutability": "nonpayable",
      "type": "function"
    },
    {
      "inputs": [
        {
          "internalType": "address",
          "name": "_oracleConsumer",
          "type": "address"
        }
      ],
      "name": "setOracleConsumer",
      "outputs": [],
      "stateMutability": "nonpayable",
      "type": "function"
    },
    {
      "inputs": [
        {
          "internalType": "address",
          "name": "_realEstateToken",
          "type": "address"
        }
      ],
      "name": "setRealEstateToken",
      "outputs": [],
      "stateMutability": "nonpayable",
      "type": "function"
    },
    {
      "inputs": [
        {
          "internalType": "uint256",
          "name": "_propertyId",
          "type": "uint256"
        },
        {
          "internalType": "string",
          "name": "_metadataURI",
          "type": "string"
        }
      ],
      "name": "storeMetadata",
      "outputs": [],
      "stateMutability": "nonpayable",
      "type": "function"
    },
    {
      "inputs": [
        {
          "internalType": "string",
          "name": "_metadataURI",
          "type": "string"
        },
        {
          "internalType": "uint256",
          "name": "_initialValue",
          "type": "uint256"
        }
      ],
      "name": "submitProperty",
      "outputs": [],
      "stateMutability": "nonpayable",
      "type": "function"
    },
    {
      "inputs": [
        {
          "internalType": "address",
          "name": "newOwner",
          "type": "address"
        }
      ],
      "name": "transferOwnership",
      "outputs": [],
      "stateMutability": "nonpayable",
      "type": "function"
    },
    {
      "inputs": [
        {
          "internalType": "uint256",
          "name": "_propertyId",
          "type": "uint256"
        },
        {
          "internalType": "uint64",
          "name": "_subscriptionId",
          "type": "uint64"
        }
      ],
      "name": "verifyProperty",
      "outputs": [],
      "stateMutability": "nonpayable",
      "type": "function"
    }
  ],
  "bytecode": "0x60a06040523480156200001157600080fd5b50604051620033a0380380620033a083398181016040528101906200003791906200026d565b33828073ffffffffffffffffffffffffffffffffffffffff1660808173ffffffffffffffffffffffffffffffffffffffff168152505050600073ffffffffffffffffffffffffffffffffffffffff168173ffffffffffffffffffffffffffffffffffffffff1603620000e35760006040517f1e4fbdf7000000000000000000000000000000000000000000000000000000008152600401620000da9190620002c5565b60405180910390fd5b620000f4816200010460201b60201c565b50806006819055505050620002e2565b60008060009054906101000a900473ffffffffffffffffffffffffffffffffffffffff169050816000806101000a81548173ffffffffffffffffffffffffffffffffffffffff021916908373ffffffffffffffffffffffffffffffffffffffff1602179055508173ffffffffffffffffffffffffffffffffffffffff168173ffffffffffffffffffffffffffffffffffffffff167f8be0079c531659141344cd1fd0a4f28419497f9722a3daafe3b4186f6b6457e060405160405180910390a35050565b600080fd5b600073ffffffffffffffffffffffffffffffffffffffff82169050919050565b6000620001fa82620001cd565b9050919050565b6200020c81620001ed565b81146200021857600080fd5b50565b6000815190506200022c8162000201565b92915050565b6000819050919050565b620002478162000232565b81146200025357600080fd5b50565b60008151905062000267816200023c565b92915050565b60008060408385031215620002875762000286620001c8565b5b600062000297858286016200021b565b9250506020620002aa8582860162000256565b9150509250929050565b620002bf81620001ed565b82525050565b6000602082019050620002dc6000830184620002b4565b92915050565b60805161309b620003056000396000818161055b01526113f3015261309b6000f3fe608060405234801561001057600080fd5b50600436106101215760003560e01c80638da5cb5b116100ad578063eb02aefb11610071578063eb02aefb146102bd578063f2fde38b146102d9578063f7b10808146102f5578063face272114610328578063fc2d25e31461034457610121565b80638da5cb5b146102295780638dbe7b9d14610247578063c361a33514610265578063d4e9f95114610283578063de9476e2146102a157610121565b8063517550dc116100f4578063517550dc146101ad5780636c84dd81146101c9578063715018a6146101e757806378ca5de7146101f15780638d6819be1461020d57610121565b8063058f63ba146101265780630ca7617514610142578063126dbe431461015e57806322674c5414610191575b600080fd5b610140600480360381019061013b9190611eef565b610374565b005b61015c600480360381019061015791906120ab565b610559565b005b61017860048036038101906101739190612136565b61061b565b604051610188949392919061220c565b60405180910390f35b6101ab60048036038101906101a691906122f9565b61076d565b005b6101c760048036038101906101c29190612136565b610854565b005b6101d16109b6565b6040516101de91906123d4565b60405180910390f35b6101ef6109dc565b005b61020b600480360381019061020691906123ef565b6109f0565b005b6102276004803603810190610222919061245a565b610a02565b005b610231610b03565b60405161023e91906124bc565b60405180910390f35b61024f610b2c565b60405161025c91906124e6565b60405180910390f35b61026d610b32565b60405161027a9190612501565b60405180910390f35b61028b610b38565b604051610298919061253d565b60405180910390f35b6102bb60048036038101906102b69190612558565b610b5e565b005b6102d760048036038101906102d29190612558565b610baa565b005b6102f360048036038101906102ee9190612558565b610bf6565b005b61030f600480360381019061030a9190612136565b610c7c565b60405161031f949392919061220c565b60405180910390f35b610342600480360381019061033d9190612585565b610d41565b005b61035e600480360381019061035991906123ef565b610e0c565b60405161036b9190612501565b60405180910390f35b61037c610e24565b60025482106103c0576040517f08c379a00000000000000000000000000000000000000000000000000000000081526004016103b79061262d565b60405180910390fd5b6001600083815260200190815260200160002060010160009054906101000a900460ff1615610424576040517f08c379a000000000000000000000000000000000000000000000000000000000815260040161041b90612699565b60405180910390fd5b61042c611db9565b6104576040518060600160405280602281526020016130446022913982610eab90919063ffffffff16565b6000600167ffffffffffffffff81111561047457610473611f80565b5b6040519080825280602002602001820160405280156104a757816020015b60608152602001906001900390816104925790505b5090506104b384610ebc565b816000815181106104c7576104c66126b9565b5b60200260200101819052506104e58183610f8a90919063ffffffff16565b60006105006104f384610fd2565b8562030d406006546113ee565b9050846003600083815260200190815260200160002081905550847f3ac587d230cd58f3d38021a58b3c4cfbfe6b007a06fc4d118f2b9726d8029f738260405161054a91906124e6565b60405180910390a25050505050565b7f000000000000000000000000000000000000000000000000000000000000000073ffffffffffffffffffffffffffffffffffffffff163373ffffffffffffffffffffffffffffffffffffffff16146105de576040517fc6829f8300000000000000000000000000000000000000000000000000000000815260040160405180910390fd5b6105e98383836114d1565b827f85e1543bf2f84fe80c6badbce3648c8539ad1df4d2b3d822938ca0538be727e660405160405180910390a2505050565b606060008060006002548510610666576040517f08c379a000000000000000000000000000000000000000000000000000000000815260040161065d9061262d565b60405180910390fd5b60006001600087815260200190815260200160002060405180608001604052908160008201805461069690612717565b80601f01602080910402602001604051908101604052809291908181526020018280546106c290612717565b801561070f5780601f106106e45761010080835404028352916020019161070f565b820191906000526020600020905b8154815290600101906020018083116106f257829003601f168201915b505050505081526020016001820160009054906101000a900460ff1615151515815260200160028201548152602001600382015481525050905080600001518160200151826040015183606001519450945094509450509193509193565b610775610e24565b6040518060800160405280838152602001600015158152602001828152602001600081525060016000600254815260200190815260200160002060008201518160000190816107c491906128ea565b5060208201518160010160006101000a81548160ff02191690831515021790555060408201518160020155606082015181600301559050506002547fe8c78c329de487e913848a1eaefd12a5fc077af9aee6e94f5eb1a8c36e2fc12e83836040516108309291906129bc565b60405180910390a26002600081548092919061084b90612a1b565b91905055505050565b61085c610e24565b6001600082815260200190815260200160002060010160009054906101000a900460ff166108bf576040517f08c379a00000000000000000000000000000000000000000000000000000000081526004016108b690612aaf565b60405180910390fd5b6000600560009054906101000a900473ffffffffffffffffffffffffffffffffffffffff1673ffffffffffffffffffffffffffffffffffffffff16638e15f4736040518163ffffffff1660e01b8152600401602060405180830381865afa15801561092e573d6000803e3d6000fd5b505050506040513d601f19601f820116820180604052508101906109529190612b05565b905060008113610997576040517f08c379a000000000000000000000000000000000000000000000000000000000815260040161098e90612b7e565b60405180910390fd5b8060016000848152602001908152602001600020600301819055505050565b600560009054906101000a900473ffffffffffffffffffffffffffffffffffffffff1681565b6109e4610e24565b6109ee6000611575565b565b6109f8610e24565b8060068190555050565b610a0a610e24565b6001600084815260200190815260200160002060010160009054906101000a900460ff16610a6d576040517f08c379a0000000000000000000000000000000000000000000000000000000008152600401610a6490612aaf565b60405180910390fd5b600460009054906101000a900473ffffffffffffffffffffffffffffffffffffffff1673ffffffffffffffffffffffffffffffffffffffff1663156e29f68385846040518463ffffffff1660e01b8152600401610acc93929190612b9e565b600060405180830381600087803b158015610ae657600080fd5b505af1158015610afa573d6000803e3d6000fd5b50505050505050565b60008060009054906101000a900473ffffffffffffffffffffffffffffffffffffffff16905090565b60065481565b60025481565b600460009054906101000a900473ffffffffffffffffffffffffffffffffffffffff1681565b610b66610e24565b80600460006101000a81548173ffffffffffffffffffffffffffffffffffffffff021916908373ffffffffffffffffffffffffffffffffffffffff16021790555050565b610bb2610e24565b80600560006101000a81548173ffffffffffffffffffffffffffffffffffffffff021916908373ffffffffffffffffffffffffffffffffffffffff16021790555050565b610bfe610e24565b600073ffffffffffffffffffffffffffffffffffffffff168173ffffffffffffffffffffffffffffffffffffffff1603610c705760006040517f1e4fbdf7000000000000000000000000000000000000000000000000000000008152600401610c6791906124bc565b60405180910390fd5b610c7981611575565b50565b6001602052806000526040600020600091509050806000018054610c9f90612717565b80601f0160208091040260200160405190810160405280929190818152602001828054610ccb90612717565b8015610d185780601f10610ced57610100808354040283529160200191610d18565b820191906000526020600020905b815481529060010190602001808311610cfb57829003601f168201915b5050505050908060010160009054906101000a900460ff16908060020154908060030154905084565b610d49610e24565b6001600083815260200190815260200160002060010160009054906101000a900460ff16610dac576040517f08c379a0000000000000000000000000000000000000000000000000000000008152600401610da390612aaf565b60405180910390fd5b80600160008481526020019081526020016000206000019081610dcf91906128ea565b50817f459157ba24c7ab9878b165ef465fa6ae2ab42bcd8445f576be378768b0c4730982604051610e009190612bd5565b60405180910390a25050565b60036020528060005260406000206000915090505481565b610e2c611639565b73ffffffffffffffffffffffffffffffffffffffff16610e4a610b03565b73ffffffffffffffffffffffffffffffffffffffff1614610ea957610e6d611639565b6040517f118cdaa7000000000000000000000000000000000000000000000000000000008152600401610ea091906124bc565b60405180910390fd5b565b610eb88260008084611641565b5050565b606060006001610ecb846116eb565b01905060008167ffffffffffffffff811115610eea57610ee9611f80565b5b6040519080825280601f01601f191660200182016040528015610f1c5781602001600182028036833780820191505090505b509050600082602001820190505b600115610f7f578080600190039150507f3031323334353637383961626364656600000000000000000000000000000000600a86061a8153600a8581610f7357610f72612bf7565b5b04945060008503610f2a575b819350505050919050565b6000815103610fc5576040517ffe936cb700000000000000000000000000000000000000000000000000000000815260040160405180910390fd5b808260a001819052505050565b60606000610fe161010061183e565b905061102b6040518060400160405280600c81526020017f636f64654c6f636174696f6e00000000000000000000000000000000000000008152508261186590919063ffffffff16565b6110548360000151600281111561104557611044612c26565b5b8261188e90919063ffffffff16565b61109c6040518060400160405280600881526020017f6c616e67756167650000000000000000000000000000000000000000000000008152508261186590919063ffffffff16565b6110c5836040015160008111156110b6576110b5612c26565b5b8261188e90919063ffffffff16565b61110d6040518060400160405280600681526020017f736f7572636500000000000000000000000000000000000000000000000000008152508261186590919063ffffffff16565b61112483606001518261186590919063ffffffff16565b60008360a001515111156111e05761117a6040518060400160405280600481526020017f61726773000000000000000000000000000000000000000000000000000000008152508261186590919063ffffffff16565b611183816118de565b60005b8360a00151518110156111d5576111c48460a0015182815181106111ad576111ac6126b9565b5b60200260200101518361186590919063ffffffff16565b806111ce90612a1b565b9050611186565b506111df81611906565b5b60008360800151511115611321576000600281111561120257611201612c26565b5b8360200151600281111561121957611218612c26565b5b03611250576040517fa80d31f700000000000000000000000000000000000000000000000000000000815260040160405180910390fd5b6112986040518060400160405280600f81526020017f736563726574734c6f636174696f6e00000000000000000000000000000000008152508261186590919063ffffffff16565b6112c1836020015160028111156112b2576112b1612c26565b5b8261188e90919063ffffffff16565b6113096040518060400160405280600781526020017f73656372657473000000000000000000000000000000000000000000000000008152508261186590919063ffffffff16565b61132083608001518261192e90919063ffffffff16565b5b60008360c001515111156113dd576113776040518060400160405280600981526020017f62797465734172677300000000000000000000000000000000000000000000008152508261186590919063ffffffff16565b611380816118de565b60005b8360c00151518110156113d2576113c18460c0015182815181106113aa576113a96126b9565b5b60200260200101518361192e90919063ffffffff16565b806113cb90612a1b565b9050611383565b506113dc81611906565b5b806000015160000151915050919050565b6000807f000000000000000000000000000000000000000000000000000000000000000073ffffffffffffffffffffffffffffffffffffffff1663461d27628688600188886040518663ffffffff1660e01b8152600401611453959493929190612cf5565b6020604051808303816000875af1158015611472573d6000803e3d6000fd5b505050506040513d601f19601f820116820180604052508101906114969190612d64565b9050807f1131472297a800fee664d1d89cfa8f7676ff07189ecc53f80bbb5f4969099db860405160405180910390a280915050949350505050565b60006003600085815260200190815260200160002054905060008351111561156f576000838060200190518101906115099190612dbd565b9050801561156d57600180600084815260200190815260200160002060010160006101000a81548160ff021916908315150217905550817f251541517e7fdfbb2cb6b8c70a4fdaa5055dd01495174bcb394e5c6934ae634160405160405180910390a25b505b50505050565b60008060009054906101000a900473ffffffffffffffffffffffffffffffffffffffff169050816000806101000a81548173ffffffffffffffffffffffffffffffffffffffff021916908373ffffffffffffffffffffffffffffffffffffffff1602179055508173ffffffffffffffffffffffffffffffffffffffff168173ffffffffffffffffffffffffffffffffffffffff167f8be0079c531659141344cd1fd0a4f28419497f9722a3daafe3b4186f6b6457e060405160405180910390a35050565b600033905090565b600081510361167c576040517f22ce3edd00000000000000000000000000000000000000000000000000000000815260040160405180910390fd5b828460000190600281111561169457611693612c26565b5b908160028111156116a8576116a7612c26565b5b8152505081846040019060008111156116c4576116c3612c26565b5b908160008111156116d8576116d7612c26565b5b8152505080846060018190525050505050565b600080600090507a184f03e93ff9f4daa797ed6e38ed64bf6a1f0100000000000000008310611749577a184f03e93ff9f4daa797ed6e38ed64bf6a1f010000000000000000838161173f5761173e612bf7565b5b0492506040810190505b6d04ee2d6d415b85acef81000000008310611786576d04ee2d6d415b85acef8100000000838161177c5761177b612bf7565b5b0492506020810190505b662386f26fc1000083106117b557662386f26fc1000083816117ab576117aa612bf7565b5b0492506010810190505b6305f5e10083106117de576305f5e10083816117d4576117d3612bf7565b5b0492506008810190505b61271083106118035761271083816117f9576117f8612bf7565b5b0492506004810190505b60648310611826576064838161181c5761181b612bf7565b5b0492506002810190505b600a8310611835576001810190505b80915050919050565b611846611e2b565b611854816000015183611957565b506000816020018181525050919050565b61187282600383516119d0565b611889818360000151611b7990919063ffffffff16565b505050565b6118b060026005600660ff16901b178360000151611b9590919063ffffffff16565b506118da82826040516020016118c69190612501565b60405160208183030381529060405261192e565b5050565b6118e9816004611bff565b6001816020018181516118fc9190612dea565b9150818152505050565b611911816007611bff565b6001816020018181516119249190612e1e565b9150818152505050565b61193b82600283516119d0565b611952818360000151611b7990919063ffffffff16565b505050565b61195f611e4b565b600060208361196e9190612e52565b1461199a576020826119809190612e52565b602061198c9190612e1e565b826119979190612dea565b91505b8183602001818152505060405180845260008152828101602001818110156119c157600080fd5b80604052505082905092915050565b60178167ffffffffffffffff1611611a0b57611a058160058460ff16901b60ff16178460000151611b9590919063ffffffff16565b50611b74565b60ff8167ffffffffffffffff1611611a6957611a3e601860058460ff16901b178460000151611b9590919063ffffffff16565b50611a638167ffffffffffffffff1660018560000151611c259092919063ffffffff16565b50611b73565b61ffff8167ffffffffffffffff1611611ac857611a9d601960058460ff16901b178460000151611b9590919063ffffffff16565b50611ac28167ffffffffffffffff1660028560000151611c259092919063ffffffff16565b50611b72565b63ffffffff8167ffffffffffffffff1611611b2957611afe601a60058460ff16901b178460000151611b9590919063ffffffff16565b50611b238167ffffffffffffffff1660048560000151611c259092919063ffffffff16565b50611b71565b611b4a601b60058460ff16901b178460000151611b9590919063ffffffff16565b50611b6f8167ffffffffffffffff1660088560000151611c259092919063ffffffff16565b505b5b5b5b505050565b611b81611e4b565b611b8d83838451611cb2565b905092915050565b611b9d611e4b565b600083600001515190506000600182611bb69190612dea565b905084602001518210611bda57611bd985600283611bd49190612e83565b611d95565b5b84516020838201018581538151831115611bf2578282525b5050849250505092915050565b611c20601f60058360ff16901b178360000151611b9590919063ffffffff16565b505050565b611c2d611e4b565b6000846000015151905060008184611c459190612dea565b90508560200151811115611c6a57611c6986600283611c649190612e83565b611d95565b5b6000600185610100611c7c9190612ff8565b611c869190612e1e565b905086518281018783198251161781528151841115611ca3578382525b50508693505050509392505050565b611cba611e4b565b8251821115611cc857600080fd5b6000846000015151905060008382611ce09190612dea565b90508560200151811115611d0557611d0486600283611cff9190612e83565b611d95565b5b60008087518051856020830101935080851115611d20578482525b60208901925050505b60208610611d675780518252602082611d429190612dea565b9150602081611d519190612dea565b9050602086611d609190612e1e565b9550611d29565b60006001876020036101000a0390508019825116818451168181178552505050879450505050509392505050565b600082600001519050611da88383611957565b50611db38382611b79565b50505050565b6040518060e0016040528060006002811115611dd857611dd7612c26565b5b815260200160006002811115611df157611df0612c26565b5b8152602001600080811115611e0957611e08612c26565b5b8152602001606081526020016060815260200160608152602001606081525090565b6040518060400160405280611e3e611e4b565b8152602001600081525090565b604051806040016040528060608152602001600081525090565b6000604051905090565b600080fd5b600080fd5b6000819050919050565b611e8c81611e79565b8114611e9757600080fd5b50565b600081359050611ea981611e83565b92915050565b600067ffffffffffffffff82169050919050565b611ecc81611eaf565b8114611ed757600080fd5b50565b600081359050611ee981611ec3565b92915050565b60008060408385031215611f0657611f05611e6f565b5b6000611f1485828601611e9a565b9250506020611f2585828601611eda565b9150509250929050565b6000819050919050565b611f4281611f2f565b8114611f4d57600080fd5b50565b600081359050611f5f81611f39565b92915050565b600080fd5b600080fd5b6000601f19601f8301169050919050565b7f4e487b7100000000000000000000000000000000000000000000000000000000600052604160045260246000fd5b611fb882611f6f565b810181811067ffffffffffffffff82111715611fd757611fd6611f80565b5b80604052505050565b6000611fea611e65565b9050611ff68282611faf565b919050565b600067ffffffffffffffff82111561201657612015611f80565b5b61201f82611f6f565b9050602081019050919050565b82818337600083830152505050565b600061204e61204984611ffb565b611fe0565b90508281526020810184848401111561206a57612069611f6a565b5b61207584828561202c565b509392505050565b600082601f83011261209257612091611f65565b5b81356120a284826020860161203b565b91505092915050565b6000806000606084860312156120c4576120c3611e6f565b5b60006120d286828701611f50565b935050602084013567ffffffffffffffff8111156120f3576120f2611e74565b5b6120ff8682870161207d565b925050604084013567ffffffffffffffff8111156121205761211f611e74565b5b61212c8682870161207d565b9150509250925092565b60006020828403121561214c5761214b611e6f565b5b600061215a84828501611e9a565b91505092915050565b600081519050919050565b600082825260208201905092915050565b60005b8381101561219d578082015181840152602081019050612182565b60008484015250505050565b60006121b482612163565b6121be818561216e565b93506121ce81856020860161217f565b6121d781611f6f565b840191505092915050565b60008115159050919050565b6121f7816121e2565b82525050565b61220681611e79565b82525050565b6000608082019050818103600083015261222681876121a9565b905061223560208301866121ee565b61224260408301856121fd565b61224f60608301846121fd565b95945050505050565b600067ffffffffffffffff82111561227357612272611f80565b5b61227c82611f6f565b9050602081019050919050565b600061229c61229784612258565b611fe0565b9050828152602081018484840111156122b8576122b7611f6a565b5b6122c384828561202c565b509392505050565b600082601f8301126122e0576122df611f65565b5b81356122f0848260208601612289565b91505092915050565b600080604083850312156123105761230f611e6f565b5b600083013567ffffffffffffffff81111561232e5761232d611e74565b5b61233a858286016122cb565b925050602061234b85828601611e9a565b9150509250929050565b600073ffffffffffffffffffffffffffffffffffffffff82169050919050565b6000819050919050565b600061239a61239561239084612355565b612375565b612355565b9050919050565b60006123ac8261237f565b9050919050565b60006123be826123a1565b9050919050565b6123ce816123b3565b82525050565b60006020820190506123e960008301846123c5565b92915050565b60006020828403121561240557612404611e6f565b5b600061241384828501611f50565b91505092915050565b600061242782612355565b9050919050565b6124378161241c565b811461244257600080fd5b50565b6000813590506124548161242e565b92915050565b60008060006060848603121561247357612472611e6f565b5b600061248186828701611e9a565b935050602061249286828701612445565b92505060406124a386828701611e9a565b9150509250925092565b6124b68161241c565b82525050565b60006020820190506124d160008301846124ad565b92915050565b6124e081611f2f565b82525050565b60006020820190506124fb60008301846124d7565b92915050565b600060208201905061251660008301846121fd565b92915050565b6000612527826123a1565b9050919050565b6125378161251c565b82525050565b6000602082019050612552600083018461252e565b92915050565b60006020828403121561256e5761256d611e6f565b5b600061257c84828501612445565b91505092915050565b6000806040838503121561259c5761259b611e6f565b5b60006125aa85828601611e9a565b925050602083013567ffffffffffffffff8111156125cb576125ca611e74565b5b6125d7858286016122cb565b9150509250929050565b7f496e76616c69642070726f706572747920494400000000000000000000000000600082015250565b600061261760138361216e565b9150612622826125e1565b602082019050919050565b600060208201905081810360008301526126468161260a565b9050919050565b7f416c726561647920766572696669656400000000000000000000000000000000600082015250565b600061268360108361216e565b915061268e8261264d565b602082019050919050565b600060208201905081810360008301526126b281612676565b9050919050565b7f4e487b7100000000000000000000000000000000000000000000000000000000600052603260045260246000fd5b7f4e487b7100000000000000000000000000000000000000000000000000000000600052602260045260246000fd5b6000600282049050600182168061272f57607f821691505b602082108103612742576127416126e8565b5b50919050565b60008190508160005260206000209050919050565b60006020601f8301049050919050565b600082821b905092915050565b6000600883026127aa7fffffffffffffffffffffffffffffffffffffffffffffffffffffffffffffffff8261276d565b6127b4868361276d565b95508019841693508086168417925050509392505050565b60006127e76127e26127dd84611e79565b612375565b611e79565b9050919050565b6000819050919050565b612801836127cc565b61281561280d826127ee565b84845461277a565b825550505050565b600090565b61282a61281d565b6128358184846127f8565b505050565b5b818110156128595761284e600082612822565b60018101905061283b565b5050565b601f82111561289e5761286f81612748565b6128788461275d565b81016020851015612887578190505b61289b6128938561275d565b83018261283a565b50505b505050565b600082821c905092915050565b60006128c1600019846008026128a3565b1980831691505092915050565b60006128da83836128b0565b9150826002028217905092915050565b6128f382612163565b67ffffffffffffffff81111561290c5761290b611f80565b5b6129168254612717565b61292182828561285d565b600060209050601f8311600181146129545760008415612942578287015190505b61294c85826128ce565b8655506129b4565b601f19841661296286612748565b60005b8281101561298a57848901518255600182019150602085019450602081019050612965565b868310156129a757848901516129a3601f8916826128b0565b8355505b6001600288020188555050505b505050505050565b600060408201905081810360008301526129d681856121a9565b90506129e560208301846121fd565b9392505050565b7f4e487b7100000000000000000000000000000000000000000000000000000000600052601160045260246000fd5b6000612a2682611e79565b91507fffffffffffffffffffffffffffffffffffffffffffffffffffffffffffffffff8203612a5857612a576129ec565b5b600182019050919050565b7f50726f7065727479206e6f742076657269666965640000000000000000000000600082015250565b6000612a9960158361216e565b9150612aa482612a63565b602082019050919050565b60006020820190508181036000830152612ac881612a8c565b9050919050565b6000819050919050565b612ae281612acf565b8114612aed57600080fd5b50565b600081519050612aff81612ad9565b92915050565b600060208284031215612b1b57612b1a611e6f565b5b6000612b2984828501612af0565b91505092915050565b7f496e76616c69642070726963652066726f6d206f7261636c6500000000000000600082015250565b6000612b6860198361216e565b9150612b7382612b32565b602082019050919050565b60006020820190508181036000830152612b9781612b5b565b9050919050565b6000606082019050612bb360008301866124ad565b612bc060208301856121fd565b612bcd60408301846121fd565b949350505050565b60006020820190508181036000830152612bef81846121a9565b905092915050565b7f4e487b7100000000000000000000000000000000000000000000000000000000600052601260045260246000fd5b7f4e487b7100000000000000000000000000000000000000000000000000000000600052602160045260246000fd5b612c5e81611eaf565b82525050565b600081519050919050565b600082825260208201905092915050565b6000612c8b82612c64565b612c958185612c6f565b9350612ca581856020860161217f565b612cae81611f6f565b840191505092915050565b600061ffff82169050919050565b612cd081612cb9565b82525050565b600063ffffffff82169050919050565b612cef81612cd6565b82525050565b600060a082019050612d0a6000830188612c55565b8181036020830152612d1c8187612c80565b9050612d2b6040830186612cc7565b612d386060830185612ce6565b612d4560808301846124d7565b9695505050505050565b600081519050612d5e81611f39565b92915050565b600060208284031215612d7a57612d79611e6f565b5b6000612d8884828501612d4f565b91505092915050565b612d9a816121e2565b8114612da557600080fd5b50565b600081519050612db781612d91565b92915050565b600060208284031215612dd357612dd2611e6f565b5b6000612de184828501612da8565b91505092915050565b6000612df582611e79565b9150612e0083611e79565b9250828201905080821115612e1857612e176129ec565b5b92915050565b6000612e2982611e79565b9150612e3483611e79565b9250828203905081811115612e4c57612e4b6129ec565b5b92915050565b6000612e5d82611e79565b9150612e6883611e79565b925082612e7857612e77612bf7565b5b828206905092915050565b6000612e8e82611e79565b9150612e9983611e79565b9250828202612ea781611e79565b91508282048414831517612ebe57612ebd6129ec565b5b5092915050565b60008160011c9050919050565b6000808291508390505b6001851115612f1c57808604811115612ef857612ef76129ec565b5b6001851615612f075780820291505b8081029050612f1585612ec5565b9450612edc565b94509492505050565b600082612f355760019050612ff1565b81612f435760009050612ff1565b8160018114612f595760028114612f6357612f92565b6001915050612ff1565b60ff841115612f7557612f746129ec565b5b8360020a915084821115612f8c57612f8b6129ec565b5b50612ff1565b5060208310610133831016604e8410600b8410161715612fc75782820a905083811115612fc257612fc16129ec565b5b612ff1565b612fd48484846001612ed2565b92509050818404811115612feb57612fea6129ec565b5b81810290505b9392505050565b600061300382611e79565b915061300e83611e79565b925061303b7fffffffffffffffffffffffffffffffffffffffffffffffffffffffffffffffff8484612f25565b90509291505056fe72657475726e2046756e6374696f6e732e656e636f6465426f6f6c2874727565293ba264697066735822122048ca2ce521460d400e08b80e793d17a8a1d60d0b74628697941a8cab7213494c64736f6c63430008140033",
  "linkReferences": {},
  "deployedLinkReferences": {}
}