{
  "_format": "hh-sol-artifact-1",
  "contractName": "RentDistributionVault",
  "sourceName": "contracts/RentDistributionVault.sol",
  "abi": [
    {
      "inputs": [
        {
          "internalType": "address",
          "name": "_stablecoin",
          "type": "address"
        },
        {
          "internalType": "address",
          "name": "_realEstateToken",
          "type": "address"
        }
      ],
      "stateMutability": "nonpayable",
      "type": "constructor"
    },
    {
      "inputs": [
        {
          "internalType": "address",
          "name": "owner",
          "type": "address"
        }
      ],
      "name": "OwnableInvalidOwner",
      "type": "error"
    },
    {
      "inputs": [
        {
          "internalType": "address",
          "name": "account",
          "type": "address"
        }
      ],
      "name": "OwnableUnauthorizedAccount",
      "type": "error"
    },
    {
      "anonymous": false,
      "inputs": [
        {
          "indexed": true,
          "internalType": "address",
          "name": "previousOwner",
          "type": "address"
        },
        {
          "indexed": true,
          "internalType": "address",
          "name": "newOwner",
          "type": "address"
        }
      ],
      "name": "OwnershipTransferred",
      "type": "event"
    },
    {
      "anonymous": false,
      "inputs": [
        {
          "indexed": true,
          "internalType": "uint256",
          "name": "propertyId",
          "type": "uint256"
        },
        {
          "indexed": false,
          "internalType": "uint256",
          "name": "amount",
          "type": "uint256"
        }
      ],
      "name": "RentDeposited",
      "type": "event"
    },
    {
      "anonymous": false,
      "inputs": [
        {
          "indexed": true,
          "internalType": "uint256",
          "name": "propertyId",
          "type": "uint256"
        },
        {
          "indexed": false,
          "internalType": "uint256",
          "name": "totalAmount",
          "type": "uint256"
        }
      ],
      "name": "RentDistributed",
      "type": "event"
    },
    {
      "inputs": [
        {
          "internalType": "bytes",
          "name": "",
          "type": "bytes"
        }
      ],
      "name": "checkUpkeep",
      "outputs": [
        {
          "internalType": "bool",
          "name": "upkeepNeeded",
          "type": "bool"
        },
        {
          "internalType": "bytes",
          "name": "performData",
          "type": "bytes"
        }
      ],
      "stateMutability": "view",
      "type": "function"
    },
    {
      "inputs": [
        {
          "internalType": "uint256",
          "name": "_propertyId",
          "type": "uint256"
        },
        {
          "internalType": "uint256",
          "name": "_amount",
          "type": "uint256"
        }
      ],
      "name": "depositRent",
      "outputs": [],
      "stateMutability": "nonpayable",
      "type": "function"
    },
    {
      "inputs": [
        {
          "internalType": "uint256",
          "name": "",
          "type": "uint256"
        }
      ],
      "name": "lastDistribution",
      "outputs": [
        {
          "internalType": "uint256",
          "name": "",
          "type": "uint256"
        }
      ],
      "stateMutability": "view",
      "type": "function"
    },
    {
      "inputs": [],
      "name": "owner",
      "outputs": [
        {
          "internalType": "address",
          "name": "",
          "type": "address"
        }
      ],
      "stateMutability": "view",
      "type": "function"
    },
    {
      "inputs": [
        {
          "internalType": "bytes",
          "name": "performData",
          "type": "bytes"
        }
      ],
      "name": "performUpkeep",
      "outputs": [],
      "stateMutability": "nonpayable",
      "type": "function"
    },
    {
      "inputs": [],
      "name": "realEstateToken",
      "outputs": [
        {
          "internalType": "contract IRealEstateToken",
          "name": "",
          "type": "address"
        }
      ],
      "stateMutability": "view",
      "type": "function"
    },
    {
      "inputs": [],
      "name": "renounceOwnership",
      "outputs": [],
      "stateMutability": "nonpayable",
      "type": "function"
    },
    {
      "inputs": [
        {
          "internalType": "uint256",
          "name": "",
          "type": "uint256"
        }
      ],
      "name": "rentPool",
      "outputs": [
        {
          "internalType": "uint256",
          "name": "",
          "type": "uint256"
        }
      ],
      "stateMutability": "view",
      "type": "function"
    },
    {
      "inputs": [],
      "name": "stablecoin",
      "outputs": [
        {
          "internalType": "contract IERC20",
          "name": "",
          "type": "address"
        }
      ],
      "stateMutability": "view",
      "type": "function"
    },
    {
      "inputs": [
        {
          "internalType": "address",
          "name": "newOwner",
          "type": "address"
        }
      ],
      "name": "transferOwnership",
      "outputs": [],
      "stateMutability": "nonpayable",
      "type": "function"
    }
  ],
  "bytecode": "0x60806040523480156200001157600080fd5b506040516200169638038062001696833981810160405281019062000037919062000277565b33600073ffffffffffffffffffffffffffffffffffffffff168173ffffffffffffffffffffffffffffffffffffffff1603620000ad5760006040517f1e4fbdf7000000000000000000000000000000000000000000000000000000008152600401620000a49190620002cf565b60405180910390fd5b620000be816200014960201b60201c565b5081600160006101000a81548173ffffffffffffffffffffffffffffffffffffffff021916908373ffffffffffffffffffffffffffffffffffffffff16021790555080600260006101000a81548173ffffffffffffffffffffffffffffffffffffffff021916908373ffffffffffffffffffffffffffffffffffffffff1602179055505050620002ec565b60008060009054906101000a900473ffffffffffffffffffffffffffffffffffffffff169050816000806101000a81548173ffffffffffffffffffffffffffffffffffffffff021916908373ffffffffffffffffffffffffffffffffffffffff1602179055508173ffffffffffffffffffffffffffffffffffffffff168173ffffffffffffffffffffffffffffffffffffffff167f8be0079c531659141344cd1fd0a4f28419497f9722a3daafe3b4186f6b6457e060405160405180910390a35050565b600080fd5b600073ffffffffffffffffffffffffffffffffffffffff82169050919050565b60006200023f8262000212565b9050919050565b620002518162000232565b81146200025d57600080fd5b50565b600081519050620002718162000246565b92915050565b600080604083850312156200029157620002906200020d565b5b6000620002a18582860162000260565b9250506020620002b48582860162000260565b9150509250929050565b620002c98162000232565b82525050565b6000602082019050620002e66000830184620002be565b92915050565b61139a80620002fc6000396000f3fe608060405234801561001057600080fd5b506004361061009e5760003560e01c80638da5cb5b116100665780638da5cb5b1461015a578063b00af2ca14610178578063d4e9f95114610194578063e9cbd822146101b2578063f2fde38b146101d05761009e565b806301b4884b146100a35780634585e33b146100d35780635f4bfcc8146100ef5780636e04ff0d1461011f578063715018a614610150575b600080fd5b6100bd60048036038101906100b89190610b6e565b6101ec565b6040516100ca9190610baa565b60405180910390f35b6100ed60048036038101906100e89190610c2a565b610204565b005b61010960048036038101906101049190610b6e565b6102df565b6040516101169190610baa565b60405180910390f35b61013960048036038101906101349190610c2a565b6102f7565b604051610147929190610d22565b60405180910390f35b6101586103ae565b005b6101626103c2565b60405161016f9190610d93565b60405180910390f35b610192600480360381019061018d9190610dae565b6103eb565b005b61019c61053f565b6040516101a99190610e4d565b60405180910390f35b6101ba610565565b6040516101c79190610e89565b60405180910390f35b6101ea60048036038101906101e59190610ed0565b61058b565b005b60036020528060005260406000206000915090505481565b600082828101906102159190610b6e565b9050600060036000838152602001908152602001600020541161026d576040517f08c379a000000000000000000000000000000000000000000000000000000000815260040161026490610f5a565b60405180910390fd5b62278d00600460008381526020019081526020016000205461028f9190610fa9565b4210156102d1576040517f08c379a00000000000000000000000000000000000000000000000000000000081526004016102c890611029565b60405180910390fd5b6102da81610611565b505050565b60046020528060005260406000206000915090505481565b6000606060005b606481101561038f576000600360008381526020019081526020016000205411801561034b575062278d0060046000838152602001908152602001600020546103479190610fa9565b4210155b1561037c576001816040516020016103639190610baa565b60405160208183030381529060405292509250506103a7565b808061038790611049565b9150506102fe565b50600060405180602001604052806000815250915091505b9250929050565b6103b66109db565b6103c06000610a62565b565b60008060009054906101000a900473ffffffffffffffffffffffffffffffffffffffff16905090565b6103f36109db565b60008111610436576040517f08c379a000000000000000000000000000000000000000000000000000000000815260040161042d906110dd565b60405180910390fd5b600160009054906101000a900473ffffffffffffffffffffffffffffffffffffffff1673ffffffffffffffffffffffffffffffffffffffff166323b872dd3330846040518463ffffffff1660e01b8152600401610495939291906110fd565b6020604051808303816000875af11580156104b4573d6000803e3d6000fd5b505050506040513d601f19601f820116820180604052508101906104d89190611160565b50806003600084815260200190815260200160002060008282546104fc9190610fa9565b92505081905550817f501e890b4c2d21bc2ff7628fdd958af0db45f8cdbb897d7dae08674fda5e0bb8826040516105339190610baa565b60405180910390a25050565b600260009054906101000a900473ffffffffffffffffffffffffffffffffffffffff1681565b600160009054906101000a900473ffffffffffffffffffffffffffffffffffffffff1681565b6105936109db565b600073ffffffffffffffffffffffffffffffffffffffff168173ffffffffffffffffffffffffffffffffffffffff16036106055760006040517f1e4fbdf70000000000000000000000000000000000000000000000000000000081526004016105fc9190610d93565b60405180910390fd5b61060e81610a62565b50565b6000600260009054906101000a900473ffffffffffffffffffffffffffffffffffffffff1673ffffffffffffffffffffffffffffffffffffffff166392ab723e836040518263ffffffff1660e01b815260040161066e9190610baa565b602060405180830381865afa15801561068b573d6000803e3d6000fd5b505050506040513d601f19601f820116820180604052508101906106af91906111a2565b9050600081116106f4576040517f08c379a00000000000000000000000000000000000000000000000000000000081526004016106eb9061121b565b60405180910390fd5b6000600360008481526020019081526020016000205490506000828261071a919061126a565b90506000600167ffffffffffffffff8111156107395761073861129b565b5b6040519080825280602002602001820160405280156107675781602001602082028036833780820191505090505b509050338160008151811061077f5761077e6112ca565b5b602002602001019073ffffffffffffffffffffffffffffffffffffffff16908173ffffffffffffffffffffffffffffffffffffffff168152505060005b815181101561096a576000600260009054906101000a900473ffffffffffffffffffffffffffffffffffffffff1673ffffffffffffffffffffffffffffffffffffffff1662fdd58e848481518110610817576108166112ca565b5b6020026020010151896040518363ffffffff1660e01b815260040161083d9291906112f9565b602060405180830381865afa15801561085a573d6000803e3d6000fd5b505050506040513d601f19601f8201168201806040525081019061087e91906111a2565b9050600081111561095657600084826108979190611322565b9050600160009054906101000a900473ffffffffffffffffffffffffffffffffffffffff1673ffffffffffffffffffffffffffffffffffffffff1663a9059cbb8585815181106108ea576108e96112ca565b5b6020026020010151836040518363ffffffff1660e01b81526004016109109291906112f9565b6020604051808303816000875af115801561092f573d6000803e3d6000fd5b505050506040513d601f19601f820116820180604052508101906109539190611160565b50505b50808061096290611049565b9150506107bc565b5060006003600087815260200190815260200160002081905550426004600087815260200190815260200160002081905550847fe119edd602f8057f976e78f3580fad7c24700f494e6ddca97279c332a213f384846040516109cc9190610baa565b60405180910390a25050505050565b6109e3610b26565b73ffffffffffffffffffffffffffffffffffffffff16610a016103c2565b73ffffffffffffffffffffffffffffffffffffffff1614610a6057610a24610b26565b6040517f118cdaa7000000000000000000000000000000000000000000000000000000008152600401610a579190610d93565b60405180910390fd5b565b60008060009054906101000a900473ffffffffffffffffffffffffffffffffffffffff169050816000806101000a81548173ffffffffffffffffffffffffffffffffffffffff021916908373ffffffffffffffffffffffffffffffffffffffff1602179055508173ffffffffffffffffffffffffffffffffffffffff168173ffffffffffffffffffffffffffffffffffffffff167f8be0079c531659141344cd1fd0a4f28419497f9722a3daafe3b4186f6b6457e060405160405180910390a35050565b600033905090565b600080fd5b600080fd5b6000819050919050565b610b4b81610b38565b8114610b5657600080fd5b50565b600081359050610b6881610b42565b92915050565b600060208284031215610b8457610b83610b2e565b5b6000610b9284828501610b59565b91505092915050565b610ba481610b38565b82525050565b6000602082019050610bbf6000830184610b9b565b92915050565b600080fd5b600080fd5b600080fd5b60008083601f840112610bea57610be9610bc5565b5b8235905067ffffffffffffffff811115610c0757610c06610bca565b5b602083019150836001820283011115610c2357610c22610bcf565b5b9250929050565b60008060208385031215610c4157610c40610b2e565b5b600083013567ffffffffffffffff811115610c5f57610c5e610b33565b5b610c6b85828601610bd4565b92509250509250929050565b60008115159050919050565b610c8c81610c77565b82525050565b600081519050919050565b600082825260208201905092915050565b60005b83811015610ccc578082015181840152602081019050610cb1565b60008484015250505050565b6000601f19601f8301169050919050565b6000610cf482610c92565b610cfe8185610c9d565b9350610d0e818560208601610cae565b610d1781610cd8565b840191505092915050565b6000604082019050610d376000830185610c83565b8181036020830152610d498184610ce9565b90509392505050565b600073ffffffffffffffffffffffffffffffffffffffff82169050919050565b6000610d7d82610d52565b9050919050565b610d8d81610d72565b82525050565b6000602082019050610da86000830184610d84565b92915050565b60008060408385031215610dc557610dc4610b2e565b5b6000610dd385828601610b59565b9250506020610de485828601610b59565b9150509250929050565b6000819050919050565b6000610e13610e0e610e0984610d52565b610dee565b610d52565b9050919050565b6000610e2582610df8565b9050919050565b6000610e3782610e1a565b9050919050565b610e4781610e2c565b82525050565b6000602082019050610e626000830184610e3e565b92915050565b6000610e7382610e1a565b9050919050565b610e8381610e68565b82525050565b6000602082019050610e9e6000830184610e7a565b92915050565b610ead81610d72565b8114610eb857600080fd5b50565b600081359050610eca81610ea4565b92915050565b600060208284031215610ee657610ee5610b2e565b5b6000610ef484828501610ebb565b91505092915050565b600082825260208201905092915050565b7f4e6f2072656e7420746f20646973747269627574650000000000000000000000600082015250565b6000610f44601583610efd565b9150610f4f82610f0e565b602082019050919050565b60006020820190508181036000830152610f7381610f37565b9050919050565b7f4e487b7100000000000000000000000000000000000000000000000000000000600052601160045260246000fd5b6000610fb482610b38565b9150610fbf83610b38565b9250828201905080821115610fd757610fd6610f7a565b5b92915050565b7f546f6f206561726c7920666f7220646973747269627574696f6e000000000000600082015250565b6000611013601a83610efd565b915061101e82610fdd565b602082019050919050565b6000602082019050818103600083015261104281611006565b9050919050565b600061105482610b38565b91507fffffffffffffffffffffffffffffffffffffffffffffffffffffffffffffffff820361108657611085610f7a565b5b600182019050919050565b7f416d6f756e74206d7573742062652067726561746572207468616e207a65726f600082015250565b60006110c7602083610efd565b91506110d282611091565b602082019050919050565b600060208201905081810360008301526110f6816110ba565b9050919050565b60006060820190506111126000830186610d84565b61111f6020830185610d84565b61112c6040830184610b9b565b949350505050565b61113d81610c77565b811461114857600080fd5b50565b60008151905061115a81611134565b92915050565b60006020828403121561117657611175610b2e565b5b60006111848482850161114b565b91505092915050565b60008151905061119c81610b42565b92915050565b6000602082840312156111b8576111b7610b2e565b5b60006111c68482850161118d565b91505092915050565b7f4e6f20746f6b656e7320666f722070726f706572747900000000000000000000600082015250565b6000611205601683610efd565b9150611210826111cf565b602082019050919050565b60006020820190508181036000830152611234816111f8565b9050919050565b7f4e487b7100000000000000000000000000000000000000000000000000000000600052601260045260246000fd5b600061127582610b38565b915061128083610b38565b9250826112905761128f61123b565b5b828204905092915050565b7f4e487b7100000000000000000000000000000000000000000000000000000000600052604160045260246000fd5b7f4e487b7100000000000000000000000000000000000000000000000000000000600052603260045260246000fd5b600060408201905061130e6000830185610d84565b61131b6020830184610b9b565b9392505050565b600061132d82610b38565b915061133883610b38565b925082820261134681610b38565b9150828204841483151761135d5761135c610f7a565b5b509291505056fea26469706673582212201b7dfc07bed70e08038cb05f9782bd24343a3dde08ab352e23cd0170f88cfa1e64736f6c63430008140033",
  "linkReferences": {},
  "deployedLinkReferences": {}
}