{
  "_format": "hh-sol-artifact-1",
  "contractName": "OracleConsumer",
  "sourceName": "contracts/OracleConsumer.sol",
  "abi": [
    {
      "inputs": [
        {
          "internalType": "address",
          "name": "_priceFeed",
          "type": "address"
        }
      ],
      "stateMutability": "nonpayable",
      "type": "constructor"
    },
    {
      "inputs": [
        {
          "internalType": "address",
          "name": "owner",
          "type": "address"
        }
      ],
      "name": "OwnableInvalidOwner",
      "type": "error"
    },
    {
      "inputs": [
        {
          "internalType": "address",
          "name": "account",
          "type": "address"
        }
      ],
      "name": "OwnableUnauthorizedAccount",
      "type": "error"
    },
    {
      "anonymous": false,
      "inputs": [
        {
          "indexed": true,
          "internalType": "address",
          "name": "previousOwner",
          "type": "address"
        },
        {
          "indexed": true,
          "internalType": "address",
          "name": "newOwner",
          "type": "address"
        }
      ],
      "name": "OwnershipTransferred",
      "type": "event"
    },
    {
      "anonymous": false,
      "inputs": [
        {
          "indexed": true,
          "internalType": "address",
          "name": "newFeed",
          "type": "address"
        }
      ],
      "name": "PriceFeedUpdated",
      "type": "event"
    },
    {
      "inputs": [],
      "name": "getLatestPrice",
      "outputs": [
        {
          "internalType": "int256",
          "name": "",
          "type": "int256"
        }
      ],
      "stateMutability": "view",
      "type": "function"
    },
    {
      "inputs": [],
      "name": "owner",
      "outputs": [
        {
          "internalType": "address",
          "name": "",
          "type": "address"
        }
      ],
      "stateMutability": "view",
      "type": "function"
    },
    {
      "inputs": [],
      "name": "priceFeed",
      "outputs": [
        {
          "internalType": "contract AggregatorV3Interface",
          "name": "",
          "type": "address"
        }
      ],
      "stateMutability": "view",
      "type": "function"
    },
    {
      "inputs": [],
      "name": "renounceOwnership",
      "outputs": [],
      "stateMutability": "nonpayable",
      "type": "function"
    },
    {
      "inputs": [
        {
          "internalType": "address",
          "name": "_newFeed",
          "type": "address"
        }
      ],
      "name": "setPriceFeed",
      "outputs": [],
      "stateMutability": "nonpayable",
      "type": "function"
    },
    {
      "inputs": [
        {
          "internalType": "address",
          "name": "newOwner",
          "type": "address"
        }
      ],
      "name": "transferOwnership",
      "outputs": [],
      "stateMutability": "nonpayable",
      "type": "function"
    }
  ],
  "bytecode": "0x608060405234801561001057600080fd5b50604051610a75380380610a7583398181016040528101906100329190610223565b33600073ffffffffffffffffffffffffffffffffffffffff168173ffffffffffffffffffffffffffffffffffffffff16036100a55760006040517f1e4fbdf700000000000000000000000000000000000000000000000000000000815260040161009c919061025f565b60405180910390fd5b6100b4816100fc60201b60201c565b5080600160006101000a81548173ffffffffffffffffffffffffffffffffffffffff021916908373ffffffffffffffffffffffffffffffffffffffff1602179055505061027a565b60008060009054906101000a900473ffffffffffffffffffffffffffffffffffffffff169050816000806101000a81548173ffffffffffffffffffffffffffffffffffffffff021916908373ffffffffffffffffffffffffffffffffffffffff1602179055508173ffffffffffffffffffffffffffffffffffffffff168173ffffffffffffffffffffffffffffffffffffffff167f8be0079c531659141344cd1fd0a4f28419497f9722a3daafe3b4186f6b6457e060405160405180910390a35050565b600080fd5b600073ffffffffffffffffffffffffffffffffffffffff82169050919050565b60006101f0826101c5565b9050919050565b610200816101e5565b811461020b57600080fd5b50565b60008151905061021d816101f7565b92915050565b600060208284031215610239576102386101c0565b5b60006102478482850161020e565b91505092915050565b610259816101e5565b82525050565b60006020820190506102746000830184610250565b92915050565b6107ec806102896000396000f3fe608060405234801561001057600080fd5b50600436106100625760003560e01c8063715018a614610067578063724e78da14610071578063741bef1a1461008d5780638da5cb5b146100ab5780638e15f473146100c9578063f2fde38b146100e7575b600080fd5b61006f610103565b005b61008b60048036038101906100869190610515565b610117565b005b6100956101a6565b6040516100a291906105a1565b60405180910390f35b6100b36101cc565b6040516100c091906105cb565b60405180910390f35b6100d16101f5565b6040516100de91906105ff565b60405180910390f35b61010160048036038101906100fc9190610515565b6102d9565b005b61010b61035f565b61011560006103e6565b565b61011f61035f565b80600160006101000a81548173ffffffffffffffffffffffffffffffffffffffff021916908373ffffffffffffffffffffffffffffffffffffffff1602179055508073ffffffffffffffffffffffffffffffffffffffff167fe5b20b8497e4f3e2435ef9c20e2e26b47497ee13745ce1c681ad6640653119e660405160405180910390a250565b600160009054906101000a900473ffffffffffffffffffffffffffffffffffffffff1681565b60008060009054906101000a900473ffffffffffffffffffffffffffffffffffffffff16905090565b600080600160009054906101000a900473ffffffffffffffffffffffffffffffffffffffff1673ffffffffffffffffffffffffffffffffffffffff1663feaf968c6040518163ffffffff1660e01b815260040160a060405180830381865afa158015610265573d6000803e3d6000fd5b505050506040513d601f19601f8201168201806040525081019061028991906106be565b505050915050600081136102d2576040517f08c379a00000000000000000000000000000000000000000000000000000000081526004016102c990610796565b60405180910390fd5b8091505090565b6102e161035f565b600073ffffffffffffffffffffffffffffffffffffffff168173ffffffffffffffffffffffffffffffffffffffff16036103535760006040517f1e4fbdf700000000000000000000000000000000000000000000000000000000815260040161034a91906105cb565b60405180910390fd5b61035c816103e6565b50565b6103676104aa565b73ffffffffffffffffffffffffffffffffffffffff166103856101cc565b73ffffffffffffffffffffffffffffffffffffffff16146103e4576103a86104aa565b6040517f118cdaa70000000000000000000000000000000000000000000000000000000081526004016103db91906105cb565b60405180910390fd5b565b60008060009054906101000a900473ffffffffffffffffffffffffffffffffffffffff169050816000806101000a81548173ffffffffffffffffffffffffffffffffffffffff021916908373ffffffffffffffffffffffffffffffffffffffff1602179055508173ffffffffffffffffffffffffffffffffffffffff168173ffffffffffffffffffffffffffffffffffffffff167f8be0079c531659141344cd1fd0a4f28419497f9722a3daafe3b4186f6b6457e060405160405180910390a35050565b600033905090565b600080fd5b600073ffffffffffffffffffffffffffffffffffffffff82169050919050565b60006104e2826104b7565b9050919050565b6104f2816104d7565b81146104fd57600080fd5b50565b60008135905061050f816104e9565b92915050565b60006020828403121561052b5761052a6104b2565b5b600061053984828501610500565b91505092915050565b6000819050919050565b600061056761056261055d846104b7565b610542565b6104b7565b9050919050565b60006105798261054c565b9050919050565b600061058b8261056e565b9050919050565b61059b81610580565b82525050565b60006020820190506105b66000830184610592565b92915050565b6105c5816104d7565b82525050565b60006020820190506105e060008301846105bc565b92915050565b6000819050919050565b6105f9816105e6565b82525050565b600060208201905061061460008301846105f0565b92915050565b600069ffffffffffffffffffff82169050919050565b6106398161061a565b811461064457600080fd5b50565b60008151905061065681610630565b92915050565b610665816105e6565b811461067057600080fd5b50565b6000815190506106828161065c565b92915050565b6000819050919050565b61069b81610688565b81146106a657600080fd5b50565b6000815190506106b881610692565b92915050565b600080600080600060a086880312156106da576106d96104b2565b5b60006106e888828901610647565b95505060206106f988828901610673565b945050604061070a888289016106a9565b935050606061071b888289016106a9565b925050608061072c88828901610647565b9150509295509295909350565b600082825260208201905092915050565b7f496e76616c69642070726963652066726f6d2066656564000000000000000000600082015250565b6000610780601783610739565b915061078b8261074a565b602082019050919050565b600060208201905081810360008301526107af81610773565b905091905056fea26469706673582212209f126efb968b6a6d88e138924cc83a7fda4dae3fe724f0c2010edbe961a8b1d264736f6c63430008140033",
  "linkReferences": {},
  "deployedLinkReferences": {}
}