{
  "_format": "hh-sol-artifact-1",
  "contractName": "RealEstateToken",
  "sourceName": "contracts/RealEstateToken.sol",
  "abi": [
    {
      "inputs": [
        {
          "internalType": "string",
          "name": "baseURI",
          "type": "string"
        }
      ],
      "stateMutability": "nonpayable",
      "type": "constructor"
    },
    {
      "inputs": [
        {
          "internalType": "address",
          "name": "sender",
          "type": "address"
        },
        {
          "internalType": "uint256",
          "name": "balance",
          "type": "uint256"
        },
        {
          "internalType": "uint256",
          "name": "needed",
          "type": "uint256"
        },
        {
          "internalType": "uint256",
          "name": "tokenId",
          "type": "uint256"
        }
      ],
      "name": "ERC1155InsufficientBalance",
      "type": "error"
    },
    {
      "inputs": [
        {
          "internalType": "address",
          "name": "approver",
          "type": "address"
        }
      ],
      "name": "ERC1155InvalidApprover",
      "type": "error"
    },
    {
      "inputs": [
        {
          "internalType": "uint256",
          "name": "idsLength",
          "type": "uint256"
        },
        {
          "internalType": "uint256",
          "name": "valuesLength",
          "type": "uint256"
        }
      ],
      "name": "ERC1155InvalidArrayLength",
      "type": "error"
    },
    {
      "inputs": [
        {
          "internalType": "address",
          "name": "operator",
          "type": "address"
        }
      ],
      "name": "ERC1155InvalidOperator",
      "type": "error"
    },
    {
      "inputs": [
        {
          "internalType": "address",
          "name": "receiver",
          "type": "address"
        }
      ],
      "name": "ERC1155InvalidReceiver",
      "type": "error"
    },
    {
      "inputs": [
        {
          "internalType": "address",
          "name": "sender",
          "type": "address"
        }
      ],
      "name": "ERC1155InvalidSender",
      "type": "error"
    },
    {
      "inputs": [
        {
          "internalType": "address",
          "name": "operator",
          "type": "address"
        },
        {
          "internalType": "address",
          "name": "owner",
          "type": "address"
        }
      ],
      "name": "ERC1155MissingApprovalForAll",
      "type": "error"
    },
    {
      "inputs": [
        {
          "internalType": "address",
          "name": "owner",
          "type": "address"
        }
      ],
      "name": "OwnableInvalidOwner",
      "type": "error"
    },
    {
      "inputs": [
        {
          "internalType": "address",
          "name": "account",
          "type": "address"
        }
      ],
      "name": "OwnableUnauthorizedAccount",
      "type": "error"
    },
    {
      "anonymous": false,
      "inputs": [
        {
          "indexed": true,
          "internalType": "address",
          "name": "account",
          "type": "address"
        },
        {
          "indexed": true,
          "internalType": "address",
          "name": "operator",
          "type": "address"
        },
        {
          "indexed": false,
          "internalType": "bool",
          "name": "approved",
          "type": "bool"
        }
      ],
      "name": "ApprovalForAll",
      "type": "event"
    },
    {
      "anonymous": false,
      "inputs": [
        {
          "indexed": true,
          "internalType": "address",
          "name": "previousOwner",
          "type": "address"
        },
        {
          "indexed": true,
          "internalType": "address",
          "name": "newOwner",
          "type": "address"
        }
      ],
      "name": "OwnershipTransferred",
      "type": "event"
    },
    {
      "anonymous": false,
      "inputs": [
        {
          "indexed": true,
          "internalType": "address",
          "name": "from",
          "type": "address"
        },
        {
          "indexed": true,
          "internalType": "uint256",
          "name": "propertyId",
          "type": "uint256"
        },
        {
          "indexed": false,
          "internalType": "uint256",
          "name": "amount",
          "type": "uint256"
        }
      ],
      "name": "TokensBurned",
      "type": "event"
    },
    {
      "anonymous": false,
      "inputs": [
        {
          "indexed": true,
          "internalType": "address",
          "name": "to",
          "type": "address"
        },
        {
          "indexed": true,
          "internalType": "uint256",
          "name": "propertyId",
          "type": "uint256"
        },
        {
          "indexed": false,
          "internalType": "uint256",
          "name": "amount",
          "type": "uint256"
        }
      ],
      "name": "TokensMinted",
      "type": "event"
    },
    {
      "anonymous": false,
      "inputs": [
        {
          "indexed": true,
          "internalType": "address",
          "name": "operator",
          "type": "address"
        },
        {
          "indexed": true,
          "internalType": "address",
          "name": "from",
          "type": "address"
        },
        {
          "indexed": true,
          "internalType": "address",
          "name": "to",
          "type": "address"
        },
        {
          "indexed": false,
          "internalType": "uint256[]",
          "name": "ids",
          "type": "uint256[]"
        },
        {
          "indexed": false,
          "internalType": "uint256[]",
          "name": "values",
          "type": "uint256[]"
        }
      ],
      "name": "TransferBatch",
      "type": "event"
    },
    {
      "anonymous": false,
      "inputs": [
        {
          "indexed": true,
          "internalType": "address",
          "name": "operator",
          "type": "address"
        },
        {
          "indexed": true,
          "internalType": "address",
          "name": "from",
          "type": "address"
        },
        {
          "indexed": true,
          "internalType": "address",
          "name": "to",
          "type": "address"
        },
        {
          "indexed": false,
          "internalType": "uint256",
          "name": "id",
          "type": "uint256"
        },
        {
          "indexed": false,
          "internalType": "uint256",
          "name": "value",
          "type": "uint256"
        }
      ],
      "name": "TransferSingle",
      "type": "event"
    },
    {
      "anonymous": false,
      "inputs": [
        {
          "indexed": false,
          "internalType": "string",
          "name": "value",
          "type": "string"
        },
        {
          "indexed": true,
          "internalType": "uint256",
          "name": "id",
          "type": "uint256"
        }
      ],
      "name": "URI",
      "type": "event"
    },
    {
      "inputs": [
        {
          "internalType": "address",
          "name": "account",
          "type": "address"
        },
        {
          "internalType": "uint256",
          "name": "id",
          "type": "uint256"
        }
      ],
      "name": "balanceOf",
      "outputs": [
        {
          "internalType": "uint256",
          "name": "",
          "type": "uint256"
        }
      ],
      "stateMutability": "view",
      "type": "function"
    },
    {
      "inputs": [
        {
          "internalType": "address[]",
          "name": "accounts",
          "type": "address[]"
        },
        {
          "internalType": "uint256[]",
          "name": "ids",
          "type": "uint256[]"
        }
      ],
      "name": "balanceOfBatch",
      "outputs": [
        {
          "internalType": "uint256[]",
          "name": "",
          "type": "uint256[]"
        }
      ],
      "stateMutability": "view",
      "type": "function"
    },
    {
      "inputs": [
        {
          "internalType": "address",
          "name": "_from",
          "type": "address"
        },
        {
          "internalType": "uint256",
          "name": "_propertyId",
          "type": "uint256"
        },
        {
          "internalType": "uint256",
          "name": "_amount",
          "type": "uint256"
        }
      ],
      "name": "burn",
      "outputs": [],
      "stateMutability": "nonpayable",
      "type": "function"
    },
    {
      "inputs": [
        {
          "internalType": "uint256",
          "name": "_propertyId",
          "type": "uint256"
        }
      ],
      "name": "getTotalSupply",
      "outputs": [
        {
          "internalType": "uint256",
          "name": "",
          "type": "uint256"
        }
      ],
      "stateMutability": "view",
      "type": "function"
    },
    {
      "inputs": [
        {
          "internalType": "address",
          "name": "account",
          "type": "address"
        },
        {
          "internalType": "address",
          "name": "operator",
          "type": "address"
        }
      ],
      "name": "isApprovedForAll",
      "outputs": [
        {
          "internalType": "bool",
          "name": "",
          "type": "bool"
        }
      ],
      "stateMutability": "view",
      "type": "function"
    },
    {
      "inputs": [
        {
          "internalType": "address",
          "name": "_to",
          "type": "address"
        },
        {
          "internalType": "uint256",
          "name": "_propertyId",
          "type": "uint256"
        },
        {
          "internalType": "uint256",
          "name": "_amount",
          "type": "uint256"
        }
      ],
      "name": "mint",
      "outputs": [],
      "stateMutability": "nonpayable",
      "type": "function"
    },
    {
      "inputs": [],
      "name": "owner",
      "outputs": [
        {
          "internalType": "address",
          "name": "",
          "type": "address"
        }
      ],
      "stateMutability": "view",
      "type": "function"
    },
    {
      "inputs": [],
      "name": "renounceOwnership",
      "outputs": [],
      "stateMutability": "nonpayable",
      "type": "function"
    },
    {
      "inputs": [
        {
          "internalType": "address",
          "name": "from",
          "type": "address"
        },
        {
          "internalType": "address",
          "name": "to",
          "type": "address"
        },
        {
          "internalType": "uint256[]",
          "name": "ids",
          "type": "uint256[]"
        },
        {
          "internalType": "uint256[]",
          "name": "values",
          "type": "uint256[]"
        },
        {
          "internalType": "bytes",
          "name": "data",
          "type": "bytes"
        }
      ],
      "name": "safeBatchTransferFrom",
      "outputs": [],
      "stateMutability": "nonpayable",
      "type": "function"
    },
    {
      "inputs": [
        {
          "internalType": "address",
          "name": "from",
          "type": "address"
        },
        {
          "internalType": "address",
          "name": "to",
          "type": "address"
        },
        {
          "internalType": "uint256",
          "name": "id",
          "type": "uint256"
        },
        {
          "internalType": "uint256",
          "name": "value",
          "type": "uint256"
        },
        {
          "internalType": "bytes",
          "name": "data",
          "type": "bytes"
        }
      ],
      "name": "safeTransferFrom",
      "outputs": [],
      "stateMutability": "nonpayable",
      "type": "function"
    },
    {
      "inputs": [
        {
          "internalType": "address",
          "name": "operator",
          "type": "address"
        },
        {
          "internalType": "bool",
          "name": "approved",
          "type": "bool"
        }
      ],
      "name": "setApprovalForAll",
      "outputs": [],
      "stateMutability": "nonpayable",
      "type": "function"
    },
    {
      "inputs": [
        {
          "internalType": "string",
          "name": "_newURI",
          "type": "string"
        }
      ],
      "name": "setBaseURI",
      "outputs": [],
      "stateMutability": "nonpayable",
      "type": "function"
    },
    {
      "inputs": [
        {
          "internalType": "bytes4",
          "name": "interfaceId",
          "type": "bytes4"
        }
      ],
      "name": "supportsInterface",
      "outputs": [
        {
          "internalType": "bool",
          "name": "",
          "type": "bool"
        }
      ],
      "stateMutability": "view",
      "type": "function"
    },
    {
      "inputs": [
        {
          "internalType": "uint256",
          "name": "",
          "type": "uint256"
        }
      ],
      "name": "totalSupply",
      "outputs": [
        {
          "internalType": "uint256",
          "name": "",
          "type": "uint256"
        }
      ],
      "stateMutability": "view",
      "type": "function"
    },
    {
      "inputs": [
        {
          "internalType": "address",
          "name": "newOwner",
          "type": "address"
        }
      ],
      "name": "transferOwnership",
      "outputs": [],
      "stateMutability": "nonpayable",
      "type": "function"
    },
    {
      "inputs": [
        {
          "internalType": "uint256",
          "name": "",
          "type": "uint256"
        }
      ],
      "name": "uri",
      "outputs": [
        {
          "internalType": "string",
          "name": "",
          "type": "string"
        }
      ],
      "stateMutability": "view",
      "type": "function"
    }
  ],
  "bytecode": "0x60806040523480156200001157600080fd5b50604051620030ec380380620030ec833981810160405281019062000037919062000347565b33816200004a81620000d960201b60201c565b50600073ffffffffffffffffffffffffffffffffffffffff168173ffffffffffffffffffffffffffffffffffffffff1603620000c05760006040517f1e4fbdf7000000000000000000000000000000000000000000000000000000008152600401620000b79190620003dd565b60405180910390fd5b620000d181620000ee60201b60201c565b50506200072c565b8060029081620000ea919062000645565b5050565b6000600360009054906101000a900473ffffffffffffffffffffffffffffffffffffffff16905081600360006101000a81548173ffffffffffffffffffffffffffffffffffffffff021916908373ffffffffffffffffffffffffffffffffffffffff1602179055508173ffffffffffffffffffffffffffffffffffffffff168173ffffffffffffffffffffffffffffffffffffffff167f8be0079c531659141344cd1fd0a4f28419497f9722a3daafe3b4186f6b6457e060405160405180910390a35050565b6000604051905090565b600080fd5b600080fd5b600080fd5b600080fd5b6000601f19601f8301169050919050565b7f4e487b7100000000000000000000000000000000000000000000000000000000600052604160045260246000fd5b6200021d82620001d2565b810181811067ffffffffffffffff821117156200023f576200023e620001e3565b5b80604052505050565b600062000254620001b4565b905062000262828262000212565b919050565b600067ffffffffffffffff821115620002855762000284620001e3565b5b6200029082620001d2565b9050602081019050919050565b60005b83811015620002bd578082015181840152602081019050620002a0565b60008484015250505050565b6000620002e0620002da8462000267565b62000248565b905082815260208101848484011115620002ff57620002fe620001cd565b5b6200030c8482856200029d565b509392505050565b600082601f8301126200032c576200032b620001c8565b5b81516200033e848260208601620002c9565b91505092915050565b60006020828403121562000360576200035f620001be565b5b600082015167ffffffffffffffff811115620003815762000380620001c3565b5b6200038f8482850162000314565b91505092915050565b600073ffffffffffffffffffffffffffffffffffffffff82169050919050565b6000620003c58262000398565b9050919050565b620003d781620003b8565b82525050565b6000602082019050620003f46000830184620003cc565b92915050565b600081519050919050565b7f4e487b7100000000000000000000000000000000000000000000000000000000600052602260045260246000fd5b600060028204905060018216806200044d57607f821691505b60208210810362000463576200046262000405565b5b50919050565b60008190508160005260206000209050919050565b60006020601f8301049050919050565b600082821b905092915050565b600060088302620004cd7fffffffffffffffffffffffffffffffffffffffffffffffffffffffffffffffff826200048e565b620004d986836200048e565b95508019841693508086168417925050509392505050565b6000819050919050565b6000819050919050565b600062000526620005206200051a84620004f1565b620004fb565b620004f1565b9050919050565b6000819050919050565b620005428362000505565b6200055a62000551826200052d565b8484546200049b565b825550505050565b600090565b6200057162000562565b6200057e81848462000537565b505050565b5b81811015620005a6576200059a60008262000567565b60018101905062000584565b5050565b601f821115620005f557620005bf8162000469565b620005ca846200047e565b81016020851015620005da578190505b620005f2620005e9856200047e565b83018262000583565b50505b505050565b600082821c905092915050565b60006200061a60001984600802620005fa565b1980831691505092915050565b600062000635838362000607565b9150826002028217905092915050565b6200065082620003fa565b67ffffffffffffffff8111156200066c576200066b620001e3565b5b62000678825462000434565b62000685828285620005aa565b600060209050601f831160018114620006bd5760008415620006a8578287015190505b620006b4858262000627565b86555062000724565b601f198416620006cd8662000469565b60005b82811015620006f757848901518255600182019150602085019450602081019050620006d0565b8683101562000717578489015162000713601f89168262000607565b8355505b6001600288020188555050505b505050505050565b6129b0806200073c6000396000f3fe608060405234801561001057600080fd5b50600436106100ff5760003560e01c80638da5cb5b11610097578063e985e9c511610066578063e985e9c5146102bc578063f242432a146102ec578063f2fde38b14610308578063f5298aca14610324576100ff565b80638da5cb5b1461022257806392ab723e14610240578063a22cb46514610270578063bd85b0391461028c576100ff565b80632eb2c2d6116100d35780632eb2c2d6146101b05780634e1273f4146101cc57806355f804b3146101fc578063715018a614610218576100ff565b8062fdd58e1461010457806301ffc9a7146101345780630e89341c14610164578063156e29f614610194575b600080fd5b61011e600480360381019061011991906119a5565b610340565b60405161012b91906119f4565b60405180910390f35b61014e60048036038101906101499190611a67565b61039a565b60405161015b9190611aaf565b60405180910390f35b61017e60048036038101906101799190611aca565b61047c565b60405161018b9190611b87565b60405180910390f35b6101ae60048036038101906101a99190611ba9565b610510565b005b6101ca60048036038101906101c59190611df9565b6105b1565b005b6101e660048036038101906101e19190611f8b565b610659565b6040516101f391906120c1565b60405180910390f35b61021660048036038101906102119190612184565b610768565b005b61022061077c565b005b61022a610790565b60405161023791906121dc565b60405180910390f35b61025a60048036038101906102559190611aca565b6107ba565b60405161026791906119f4565b60405180910390f35b61028a60048036038101906102859190612223565b6107d7565b005b6102a660048036038101906102a19190611aca565b6107ed565b6040516102b391906119f4565b60405180910390f35b6102d660048036038101906102d19190612263565b610805565b6040516102e39190611aaf565b60405180910390f35b610306600480360381019061030191906122a3565b610899565b005b610322600480360381019061031d919061233a565b610941565b005b61033e60048036038101906103399190611ba9565b6109c7565b005b600080600083815260200190815260200160002060008473ffffffffffffffffffffffffffffffffffffffff1673ffffffffffffffffffffffffffffffffffffffff16815260200190815260200160002054905092915050565b60007fd9b67a26000000000000000000000000000000000000000000000000000000007bffffffffffffffffffffffffffffffffffffffffffffffffffffffff1916827bffffffffffffffffffffffffffffffffffffffffffffffffffffffff1916148061046557507f0e89341c000000000000000000000000000000000000000000000000000000007bffffffffffffffffffffffffffffffffffffffffffffffffffffffff1916827bffffffffffffffffffffffffffffffffffffffffffffffffffffffff1916145b80610475575061047482610a58565b5b9050919050565b60606002805461048b90612396565b80601f01602080910402602001604051908101604052809291908181526020018280546104b790612396565b80156105045780601f106104d957610100808354040283529160200191610504565b820191906000526020600020905b8154815290600101906020018083116104e757829003601f168201915b50505050509050919050565b610518610ac2565b61053383838360405180602001604052806000815250610b49565b8060046000848152602001908152602001600020600082825461055691906123f6565b92505081905550818373ffffffffffffffffffffffffffffffffffffffff167f2e8ac5177a616f2aec08c3048f5021e4e9743ece034e8d83ba5caf76688bb475836040516105a491906119f4565b60405180910390a3505050565b60006105bb610be2565b90508073ffffffffffffffffffffffffffffffffffffffff168673ffffffffffffffffffffffffffffffffffffffff161415801561060057506105fe8682610805565b155b156106445780866040517fe237d92200000000000000000000000000000000000000000000000000000000815260040161063b92919061242a565b60405180910390fd5b6106518686868686610bea565b505050505050565b606081518351146106a557815183516040517f5b05999100000000000000000000000000000000000000000000000000000000815260040161069c929190612453565b60405180910390fd5b6000835167ffffffffffffffff8111156106c2576106c1611c01565b5b6040519080825280602002602001820160405280156106f05781602001602082028036833780820191505090505b50905060005b845181101561075d5761072d6107158287610ce290919063ffffffff16565b6107288387610cf690919063ffffffff16565b610340565b8282815181106107405761073f61247c565b5b60200260200101818152505080610756906124ab565b90506106f6565b508091505092915050565b610770610ac2565b61077981610d0a565b50565b610784610ac2565b61078e6000610d1d565b565b6000600360009054906101000a900473ffffffffffffffffffffffffffffffffffffffff16905090565b600060046000838152602001908152602001600020549050919050565b6107e96107e2610be2565b8383610de3565b5050565b60046020528060005260406000206000915090505481565b6000600160008473ffffffffffffffffffffffffffffffffffffffff1673ffffffffffffffffffffffffffffffffffffffff16815260200190815260200160002060008373ffffffffffffffffffffffffffffffffffffffff1673ffffffffffffffffffffffffffffffffffffffff16815260200190815260200160002060009054906101000a900460ff16905092915050565b60006108a3610be2565b90508073ffffffffffffffffffffffffffffffffffffffff168673ffffffffffffffffffffffffffffffffffffffff16141580156108e857506108e68682610805565b155b1561092c5780866040517fe237d92200000000000000000000000000000000000000000000000000000000815260040161092392919061242a565b60405180910390fd5b6109398686868686610f53565b505050505050565b610949610ac2565b600073ffffffffffffffffffffffffffffffffffffffff168173ffffffffffffffffffffffffffffffffffffffff16036109bb5760006040517f1e4fbdf70000000000000000000000000000000000000000000000000000000081526004016109b291906121dc565b60405180910390fd5b6109c481610d1d565b50565b6109cf610ac2565b6109da83838361105e565b806004600084815260200190815260200160002060008282546109fd91906124f3565b92505081905550818373ffffffffffffffffffffffffffffffffffffffff167fccbea4088a3b7ae9ca2d15fab9a9742a4075b4d7247768a1eecea917565aba0083604051610a4b91906119f4565b60405180910390a3505050565b60007f01ffc9a7000000000000000000000000000000000000000000000000000000007bffffffffffffffffffffffffffffffffffffffffffffffffffffffff1916827bffffffffffffffffffffffffffffffffffffffffffffffffffffffff1916149050919050565b610aca610be2565b73ffffffffffffffffffffffffffffffffffffffff16610ae8610790565b73ffffffffffffffffffffffffffffffffffffffff1614610b4757610b0b610be2565b6040517f118cdaa7000000000000000000000000000000000000000000000000000000008152600401610b3e91906121dc565b60405180910390fd5b565b600073ffffffffffffffffffffffffffffffffffffffff168473ffffffffffffffffffffffffffffffffffffffff1603610bbb5760006040517f57f447ce000000000000000000000000000000000000000000000000000000008152600401610bb291906121dc565b60405180910390fd5b600080610bc88585611105565b91509150610bda600087848487611135565b505050505050565b600033905090565b600073ffffffffffffffffffffffffffffffffffffffff168473ffffffffffffffffffffffffffffffffffffffff1603610c5c5760006040517f57f447ce000000000000000000000000000000000000000000000000000000008152600401610c5391906121dc565b60405180910390fd5b600073ffffffffffffffffffffffffffffffffffffffff168573ffffffffffffffffffffffffffffffffffffffff1603610cce5760006040517f01a83514000000000000000000000000000000000000000000000000000000008152600401610cc591906121dc565b60405180910390fd5b610cdb8585858585611135565b5050505050565b600060208202602084010151905092915050565b600060208202602084010151905092915050565b8060029081610d1991906126d3565b5050565b6000600360009054906101000a900473ffffffffffffffffffffffffffffffffffffffff16905081600360006101000a81548173ffffffffffffffffffffffffffffffffffffffff021916908373ffffffffffffffffffffffffffffffffffffffff1602179055508173ffffffffffffffffffffffffffffffffffffffff168173ffffffffffffffffffffffffffffffffffffffff167f8be0079c531659141344cd1fd0a4f28419497f9722a3daafe3b4186f6b6457e060405160405180910390a35050565b600073ffffffffffffffffffffffffffffffffffffffff168273ffffffffffffffffffffffffffffffffffffffff1603610e555760006040517fced3e100000000000000000000000000000000000000000000000000000000008152600401610e4c91906121dc565b60405180910390fd5b80600160008573ffffffffffffffffffffffffffffffffffffffff1673ffffffffffffffffffffffffffffffffffffffff16815260200190815260200160002060008473ffffffffffffffffffffffffffffffffffffffff1673ffffffffffffffffffffffffffffffffffffffff16815260200190815260200160002060006101000a81548160ff0219169083151502179055508173ffffffffffffffffffffffffffffffffffffffff168373ffffffffffffffffffffffffffffffffffffffff167f17307eab39ab6107e8899845ad3d59bd9653f200f220920489ca2b5937696c3183604051610f469190611aaf565b60405180910390a3505050565b600073ffffffffffffffffffffffffffffffffffffffff168473ffffffffffffffffffffffffffffffffffffffff1603610fc55760006040517f57f447ce000000000000000000000000000000000000000000000000000000008152600401610fbc91906121dc565b60405180910390fd5b600073ffffffffffffffffffffffffffffffffffffffff168573ffffffffffffffffffffffffffffffffffffffff16036110375760006040517f01a8351400000000000000000000000000000000000000000000000000000000815260040161102e91906121dc565b60405180910390fd5b6000806110448585611105565b915091506110558787848487611135565b50505050505050565b600073ffffffffffffffffffffffffffffffffffffffff168373ffffffffffffffffffffffffffffffffffffffff16036110d05760006040517f01a835140000000000000000000000000000000000000000000000000000000081526004016110c791906121dc565b60405180910390fd5b6000806110dd8484611105565b915091506110fe856000848460405180602001604052806000815250611135565b5050505050565b60608060405191506001825283602083015260408201905060018152826020820152604081016040529250929050565b611141858585856111e7565b600073ffffffffffffffffffffffffffffffffffffffff168473ffffffffffffffffffffffffffffffffffffffff16146111e057600061117f610be2565b905060018451036111cf5760006111a0600086610cf690919063ffffffff16565b905060006111b8600086610cf690919063ffffffff16565b90506111c8838989858589611595565b50506111de565b6111dd818787878787611749565b5b505b5050505050565b805182511461123157815181516040517f5b059991000000000000000000000000000000000000000000000000000000008152600401611228929190612453565b60405180910390fd5b600061123b610be2565b905060005b835181101561145057600061125e8286610cf690919063ffffffff16565b905060006112758386610cf690919063ffffffff16565b9050600073ffffffffffffffffffffffffffffffffffffffff168873ffffffffffffffffffffffffffffffffffffffff16146113a257600080600084815260200190815260200160002060008a73ffffffffffffffffffffffffffffffffffffffff1673ffffffffffffffffffffffffffffffffffffffff1681526020019081526020016000205490508181101561134a57888183856040517f03dee4c500000000000000000000000000000000000000000000000000000000815260040161134194939291906127a5565b60405180910390fd5b81810360008085815260200190815260200160002060008b73ffffffffffffffffffffffffffffffffffffffff1673ffffffffffffffffffffffffffffffffffffffff16815260200190815260200160002081905550505b600073ffffffffffffffffffffffffffffffffffffffff168773ffffffffffffffffffffffffffffffffffffffff161461143d578060008084815260200190815260200160002060008973ffffffffffffffffffffffffffffffffffffffff1673ffffffffffffffffffffffffffffffffffffffff168152602001908152602001600020600082825461143591906123f6565b925050819055505b505080611449906124ab565b9050611240565b50600183510361150f576000611470600085610cf690919063ffffffff16565b90506000611488600085610cf690919063ffffffff16565b90508573ffffffffffffffffffffffffffffffffffffffff168773ffffffffffffffffffffffffffffffffffffffff168473ffffffffffffffffffffffffffffffffffffffff167fc3d58168c5ae7397731d063d5bbf3d657854427343f4c083240f7aacaa2d0f628585604051611500929190612453565b60405180910390a4505061158e565b8373ffffffffffffffffffffffffffffffffffffffff168573ffffffffffffffffffffffffffffffffffffffff168273ffffffffffffffffffffffffffffffffffffffff167f4a39dc06d4c0dbc64b70af90fd698a233a518aa5d07e595d983b8c0526c8f7fb86866040516115859291906127ea565b60405180910390a45b5050505050565b60008473ffffffffffffffffffffffffffffffffffffffff163b1115611741578373ffffffffffffffffffffffffffffffffffffffff1663f23a6e6187878686866040518663ffffffff1660e01b81526004016115f6959493929190612876565b6020604051808303816000875af192505050801561163257506040513d601f19601f8201168201806040525081019061162f91906128e5565b60015b6116b6573d8060008114611662576040519150601f19603f3d011682016040523d82523d6000602084013e611667565b606091505b5060008151036116ae57846040517f57f447ce0000000000000000000000000000000000000000000000000000000081526004016116a591906121dc565b60405180910390fd5b805181602001fd5b63f23a6e6160e01b7bffffffffffffffffffffffffffffffffffffffffffffffffffffffff1916817bffffffffffffffffffffffffffffffffffffffffffffffffffffffff19161461173f57846040517f57f447ce00000000000000000000000000000000000000000000000000000000815260040161173691906121dc565b60405180910390fd5b505b505050505050565b60008473ffffffffffffffffffffffffffffffffffffffff163b11156118f5578373ffffffffffffffffffffffffffffffffffffffff1663bc197c8187878686866040518663ffffffff1660e01b81526004016117aa959493929190612912565b6020604051808303816000875af19250505080156117e657506040513d601f19601f820116820180604052508101906117e391906128e5565b60015b61186a573d8060008114611816576040519150601f19603f3d011682016040523d82523d6000602084013e61181b565b606091505b50600081510361186257846040517f57f447ce00000000000000000000000000000000000000000000000000000000815260040161185991906121dc565b60405180910390fd5b805181602001fd5b63bc197c8160e01b7bffffffffffffffffffffffffffffffffffffffffffffffffffffffff1916817bffffffffffffffffffffffffffffffffffffffffffffffffffffffff1916146118f357846040517f57f447ce0000000000000000000000000000000000000000000000000000000081526004016118ea91906121dc565b60405180910390fd5b505b505050505050565b6000604051905090565b600080fd5b600080fd5b600073ffffffffffffffffffffffffffffffffffffffff82169050919050565b600061193c82611911565b9050919050565b61194c81611931565b811461195757600080fd5b50565b60008135905061196981611943565b92915050565b6000819050919050565b6119828161196f565b811461198d57600080fd5b50565b60008135905061199f81611979565b92915050565b600080604083850312156119bc576119bb611907565b5b60006119ca8582860161195a565b92505060206119db85828601611990565b9150509250929050565b6119ee8161196f565b82525050565b6000602082019050611a0960008301846119e5565b92915050565b60007fffffffff0000000000000000000000000000000000000000000000000000000082169050919050565b611a4481611a0f565b8114611a4f57600080fd5b50565b600081359050611a6181611a3b565b92915050565b600060208284031215611a7d57611a7c611907565b5b6000611a8b84828501611a52565b91505092915050565b60008115159050919050565b611aa981611a94565b82525050565b6000602082019050611ac46000830184611aa0565b92915050565b600060208284031215611ae057611adf611907565b5b6000611aee84828501611990565b91505092915050565b600081519050919050565b600082825260208201905092915050565b60005b83811015611b31578082015181840152602081019050611b16565b60008484015250505050565b6000601f19601f8301169050919050565b6000611b5982611af7565b611b638185611b02565b9350611b73818560208601611b13565b611b7c81611b3d565b840191505092915050565b60006020820190508181036000830152611ba18184611b4e565b905092915050565b600080600060608486031215611bc257611bc1611907565b5b6000611bd08682870161195a565b9350506020611be186828701611990565b9250506040611bf286828701611990565b9150509250925092565b600080fd5b7f4e487b7100000000000000000000000000000000000000000000000000000000600052604160045260246000fd5b611c3982611b3d565b810181811067ffffffffffffffff82111715611c5857611c57611c01565b5b80604052505050565b6000611c6b6118fd565b9050611c778282611c30565b919050565b600067ffffffffffffffff821115611c9757611c96611c01565b5b602082029050602081019050919050565b600080fd5b6000611cc0611cbb84611c7c565b611c61565b90508083825260208201905060208402830185811115611ce357611ce2611ca8565b5b835b81811015611d0c5780611cf88882611990565b845260208401935050602081019050611ce5565b5050509392505050565b600082601f830112611d2b57611d2a611bfc565b5b8135611d3b848260208601611cad565b91505092915050565b600080fd5b600067ffffffffffffffff821115611d6457611d63611c01565b5b611d6d82611b3d565b9050602081019050919050565b82818337600083830152505050565b6000611d9c611d9784611d49565b611c61565b905082815260208101848484011115611db857611db7611d44565b5b611dc3848285611d7a565b509392505050565b600082601f830112611de057611ddf611bfc565b5b8135611df0848260208601611d89565b91505092915050565b600080600080600060a08688031215611e1557611e14611907565b5b6000611e238882890161195a565b9550506020611e348882890161195a565b945050604086013567ffffffffffffffff811115611e5557611e5461190c565b5b611e6188828901611d16565b935050606086013567ffffffffffffffff811115611e8257611e8161190c565b5b611e8e88828901611d16565b925050608086013567ffffffffffffffff811115611eaf57611eae61190c565b5b611ebb88828901611dcb565b9150509295509295909350565b600067ffffffffffffffff821115611ee357611ee2611c01565b5b602082029050602081019050919050565b6000611f07611f0284611ec8565b611c61565b90508083825260208201905060208402830185811115611f2a57611f29611ca8565b5b835b81811015611f535780611f3f888261195a565b845260208401935050602081019050611f2c565b5050509392505050565b600082601f830112611f7257611f71611bfc565b5b8135611f82848260208601611ef4565b91505092915050565b60008060408385031215611fa257611fa1611907565b5b600083013567ffffffffffffffff811115611fc057611fbf61190c565b5b611fcc85828601611f5d565b925050602083013567ffffffffffffffff811115611fed57611fec61190c565b5b611ff985828601611d16565b9150509250929050565b600081519050919050565b600082825260208201905092915050565b6000819050602082019050919050565b6120388161196f565b82525050565b600061204a838361202f565b60208301905092915050565b6000602082019050919050565b600061206e82612003565b612078818561200e565b93506120838361201f565b8060005b838110156120b457815161209b888261203e565b97506120a683612056565b925050600181019050612087565b5085935050505092915050565b600060208201905081810360008301526120db8184612063565b905092915050565b600067ffffffffffffffff8211156120fe576120fd611c01565b5b61210782611b3d565b9050602081019050919050565b6000612127612122846120e3565b611c61565b90508281526020810184848401111561214357612142611d44565b5b61214e848285611d7a565b509392505050565b600082601f83011261216b5761216a611bfc565b5b813561217b848260208601612114565b91505092915050565b60006020828403121561219a57612199611907565b5b600082013567ffffffffffffffff8111156121b8576121b761190c565b5b6121c484828501612156565b91505092915050565b6121d681611931565b82525050565b60006020820190506121f160008301846121cd565b92915050565b61220081611a94565b811461220b57600080fd5b50565b60008135905061221d816121f7565b92915050565b6000806040838503121561223a57612239611907565b5b60006122488582860161195a565b92505060206122598582860161220e565b9150509250929050565b6000806040838503121561227a57612279611907565b5b60006122888582860161195a565b92505060206122998582860161195a565b9150509250929050565b600080600080600060a086880312156122bf576122be611907565b5b60006122cd8882890161195a565b95505060206122de8882890161195a565b94505060406122ef88828901611990565b935050606061230088828901611990565b925050608086013567ffffffffffffffff8111156123215761232061190c565b5b61232d88828901611dcb565b9150509295509295909350565b6000602082840312156123505761234f611907565b5b600061235e8482850161195a565b91505092915050565b7f4e487b7100000000000000000000000000000000000000000000000000000000600052602260045260246000fd5b600060028204905060018216806123ae57607f821691505b6020821081036123c1576123c0612367565b5b50919050565b7f4e487b7100000000000000000000000000000000000000000000000000000000600052601160045260246000fd5b60006124018261196f565b915061240c8361196f565b9250828201905080821115612424576124236123c7565b5b92915050565b600060408201905061243f60008301856121cd565b61244c60208301846121cd565b9392505050565b600060408201905061246860008301856119e5565b61247560208301846119e5565b9392505050565b7f4e487b7100000000000000000000000000000000000000000000000000000000600052603260045260246000fd5b60006124b68261196f565b91507fffffffffffffffffffffffffffffffffffffffffffffffffffffffffffffffff82036124e8576124e76123c7565b5b600182019050919050565b60006124fe8261196f565b91506125098361196f565b9250828203905081811115612521576125206123c7565b5b92915050565b60008190508160005260206000209050919050565b60006020601f8301049050919050565b600082821b905092915050565b6000600883026125897fffffffffffffffffffffffffffffffffffffffffffffffffffffffffffffffff8261254c565b612593868361254c565b95508019841693508086168417925050509392505050565b6000819050919050565b60006125d06125cb6125c68461196f565b6125ab565b61196f565b9050919050565b6000819050919050565b6125ea836125b5565b6125fe6125f6826125d7565b848454612559565b825550505050565b600090565b612613612606565b61261e8184846125e1565b505050565b5b818110156126425761263760008261260b565b600181019050612624565b5050565b601f8211156126875761265881612527565b6126618461253c565b81016020851015612670578190505b61268461267c8561253c565b830182612623565b50505b505050565b600082821c905092915050565b60006126aa6000198460080261268c565b1980831691505092915050565b60006126c38383612699565b9150826002028217905092915050565b6126dc82611af7565b67ffffffffffffffff8111156126f5576126f4611c01565b5b6126ff8254612396565b61270a828285612646565b600060209050601f83116001811461273d576000841561272b578287015190505b61273585826126b7565b86555061279d565b601f19841661274b86612527565b60005b828110156127735784890151825560018201915060208501945060208101905061274e565b86831015612790578489015161278c601f891682612699565b8355505b6001600288020188555050505b505050505050565b60006080820190506127ba60008301876121cd565b6127c760208301866119e5565b6127d460408301856119e5565b6127e160608301846119e5565b95945050505050565b600060408201905081810360008301526128048185612063565b905081810360208301526128188184612063565b90509392505050565b600081519050919050565b600082825260208201905092915050565b600061284882612821565b612852818561282c565b9350612862818560208601611b13565b61286b81611b3d565b840191505092915050565b600060a08201905061288b60008301886121cd565b61289860208301876121cd565b6128a560408301866119e5565b6128b260608301856119e5565b81810360808301526128c4818461283d565b90509695505050505050565b6000815190506128df81611a3b565b92915050565b6000602082840312156128fb576128fa611907565b5b6000612909848285016128d0565b91505092915050565b600060a08201905061292760008301886121cd565b61293460208301876121cd565b81810360408301526129468186612063565b9050818103606083015261295a8185612063565b9050818103608083015261296e818461283d565b9050969550505050505056fea26469706673582212201e0944284c8278abdaa6ed248d0ee00550d930cb8708aa2cb10fc074cffa6c8d64736f6c63430008140033",
  "linkReferences": {},
  "deployedLinkReferences": {}
}